:020000040800F2
:1000000000040020C1010008B11B0008B11B00085A
:10001000B11B0008B11B0008B11B0008B11B000890
:10002000B11B0008B11B0008B11B00089135000886
:10003000B11B0008B11B0008B11B0008B11B000870
:10004000B11B0008B11B0008B11B0008B11B000860
:10005000B11B0008B11B0008B11B0008B11B000850
:10006000B11B0008B11B0008B11B0008B11B000840
:10007000B11B0008B11B0008B11B0008B11B000830
:10008000B11B0008B11B0008B11B0008B11B000820
:10009000B11B0008B11B0008B11B0008B11B000810
:1000A000B11B0008B11B0008B11B0008B11B000800
:1000B000B1920008B11B0008B11B0008B11B000879
:1000C000B11B0008B11B0008B11B0008B11B0008E0
:1000D000B11B0008B11B0008B11B0008B11B0008D0
:1000E000B11B0008B11B0008B11B0008B11B0008C0
:1000F000B11B0008B11B0008B11B0008B11B0008B0
:10010000B11B0008B11B0008B11B0008B11B00089F
:10011000B11B0008B11B0008B11B0008B11B00088F
:10012000B11B0008B11B0008B11B0008B11B00087F
:10013000B11B0008B11B0008B11B0008B11B00086F
:10014000B11B0008B11B0008B11B0008C1930008D7
:10015000B11B0008B11B0008B11B0008B11B00084F
:10016000B11B0008B11B0008B11B0008B11B00083F
:10017000B11B000891930008B11B0008B11B0008D7
:10018000B11B0008B11B0008B11B0008B11B00081F
:10019000B11B0008B11B0008B11B0008B11B00080F
:1001A000B11B0008B11B0008B11B0008B11B0008FF
:1001B000B11B0008B11B0008B11B0008B11B0008EF
:1001C00072B6264880F3098825484EF60851CEF2CB
:1001D00000010860022080F31488BFF36F8F01F0E4
:1001E0002FFD09F0FDFA4FF055301E491E4A91428D
:1001F0003CBF41F8040BFAE71C49184A91423CBF46
:1002000041F8040BFAE71A491A4A1B4B9A423EBFBF
:1002100051F8040B42F8040BF8E700201749184A7C
:1002200091423CBF41F8040BFAE701F0C9FC01F030
:10023000FFFC144C144DAC4203DA54F8041B8847FD
:10024000F9E704F0EDF9114C114DAC4203DA54F822
:10025000041B8847F9E701F0E3BC00000008002018
:10026000000000080000002000040020000400201E
:1002700054C5000800080020880C0020880C0020CD
:1002800040270020C0010008C0010008C00100088C
:10029000C00100082DE9F04FC1F80CD0C3689D469D
:1002A000BDE8F08F00F0B4FF002383F311882846E7
:1002B000A047002001F00CFB00F0D2FF00F070FB23
:1002C00000F0A6FF00DFFEE7844641EA000313F0DA
:1002D00003036DD1403A41D351F8043B40F8043B4D
:1002E00051F8043B40F8043B51F8043B40F8043B10
:1002F00051F8043B40F8043B51F8043B40F8043B00
:1003000051F8043B40F8043B51F8043B40F8043BEF
:1003100051F8043B40F8043B51F8043B40F8043BDF
:1003200051F8043B40F8043B51F8043B40F8043BCF
:1003300051F8043B40F8043B51F8043B40F8043BBF
:1003400051F8043B40F8043B51F8043B40F8043BAF
:1003500051F8043B40F8043B403ABDD2303211D34F
:1003600051F8043B40F8043B51F8043B40F8043B8F
:1003700051F8043B40F8043B51F8043B40F8043B7F
:10038000103AEDD20C3205D351F8043B40F8043B4F
:10039000043AF9D2043208D0D2071CBF11F8013B4D
:1003A00000F8013B01D30B8803806046704700BF13
:1003B000082A13D38B078DD010F003038AD0C3F122
:1003C0000403D21ADB071CBF11F8013B00F8013B04
:1003D00080D331F8023B20F8023B7BE7043AD9D3C3
:1003E000013A11F8013B00F8013BF9D20B78037098
:1003F0004B7843708B788370604670470000000034
:10040000A2EB0300704700BF02780B78012A28BFD7
:100410009A42F5D16DE9044540EA0104CDE902674D
:100420006FF0000C4FEA447212B380EA010414F03A
:10043000070F6AD100F0070420F0070004F003055D
:1004400021F007014FEAC505F0E8042314F0040F7A
:10045000F1E804670CFA05F462EA040266EA0406AD
:100460000AD063EA0403624667EA0407664603E0CB
:10047000F0E80423F1E8046782FA4CF582EA060406
:10048000A4FA8CF46CBB83FA4CF583EA0705A5FA51
:100490008CF595B950E9022351E9026782FA4CF5CF
:1004A00082EA0604A4FA8CF483FA4CF583EA070581
:1004B000A5FA8CF52543DBD09CB92DBAB5FA85F4A5
:1004C00024F0070427FA04F1DDE9026723FA04F3B4
:1004D00003F0FF0001F0FF01FDE80445A0EB01007F
:1004E000704724BAB4FA84F424F0070426FA04F11D
:1004F000DDE9026722FA04F202F0FF0001F0FF01D9
:10050000FDE80445A0EB0100704714F0030F3CD157
:1005100010F0030428D150F8082B51F8083B82FA58
:100520004CF582EA0305A5FA8CF55DB950F8042C68
:1005300051F8043C82FA4CF582EA0305A5FA8CF5E1
:10054000002DE8D02DBAB5FA85F424F0070423FA7B
:1005500004F122FA04F202F0FF0001F0FF01FDE8CD
:100560000445A0EB010070474FEAC40420F00300EB
:1005700050F8082B21F0030151F8083B0CFA04F461
:1005800062EA040263EA0403C9E710F003041AD024
:10059000A1EB040120F00300E40750F8042B06D07F
:1005A0000FD28B785FFAA2F4E41A06D12BB1CB7884
:1005B0005FFAB2F4E41A00D11BB920465DF8104B83
:1005C000704701F1040150F8042BCC0721F003011E
:1005D00051F8043B48D824D222F07F4482FA4CF5EB
:1005E00094EA1325A5FA8CF50AD165B951F8043BB4
:1005F00084EA0204B4EB036F0ED150F8042BEBE74E
:100600004FEA132355E035F07F454DD10878FDE8DA
:100610000445C0F1000070474FEA126203F0FF0387
:1006200047E002EA1C4482FA4CF594EA1345A5FA25
:100630008CF50AD165B951F8043B84EA0204B4EBA5
:10064000034F0CD150F8042BEBE74FEA134330E093
:1006500015EA1C4528D10B884FEA124229E04FEADF
:10066000124203EA1C4324E002F0FF0482FA4CF534
:1006700094EA1365A5FA8CF50AD165B951F8043BE3
:1006800084EA0204B4EB032F09D150F8042BEBE702
:100690004FEA13630DE015F0FF0F05D10B684FEA29
:1006A000122223F07F4304E04FF00000FDE80445F0
:1006B000704712BA1BBA82FA4CF482EA0304A4FA15
:1006C0008CF5B5FA85F402FA04F203FA04F34FEA62
:1006D0001260FDE80445A0EB1360704700000000C5
:1006E000FEE700BF00000000000000000000000066
:1006F0000E4B0F4A5B68C168F0B48768D2F8846813
:100700004268D0E90445DB1B9B1BE41845F100055A
:100710009342026888BF436001319342C0E90445B7
:10072000C160836038BF0360F0BC7047001000E018
:100730006C1E00200000000000000000000000000F
:1007400010B40B4A0B48D36B4FF080441968646AAD
:100750005C60406860F31F2143F8101B02F50461E0
:100760008B4228BF02F14003D36310BC704700BF27
:100770006C1E0020001000E00000000000000000DF
:100780000B4A138F10B513F002040FD1202383F30B
:100790001188D26B13789060032161F3020364F334
:1007A000C7031370FFF7CCFF84F3118810BD00BF9F
:1007B0006C1E00200000000000000000000000008F
:1007C0000B4A138F10B513F002040FD1202383F3CB
:1007D0001188D26B13789060022161F3020364F3F5
:1007E000C7031370FFF7ACFF84F3118810BD00BF7F
:1007F0006C1E00200000000000000000000000004F
:10080000034A516853685B1A9842FBD8704700BF8F
:10081000001000E0000000000000000000000000E8
:1008200008B5054672B6094C238F13F0040201D0B7
:10083000E562FEE7E16B0B788860042060F3020359
:1008400062F3C7030B70FFF77BFFF1E76C1E00201C
:1008500008B5054B1A6B1AB95B6B002B00DD08BDA0
:100860000248FFF7DDFF00BF6C1E002068A70008EC
:1008700070B5104CA5690646FFF7EAFF236885F8B6
:1008800020601A68226001215460284683F82010F5
:10089000A36109F025FAEFF30983EA69243B9A4240
:1008A00005D82946A069BDE87040FFF7F3BC0248AF
:1008B000FFF7B6FF6C1E002070A7000800000000C4
:1008C00008B5054B1A6B002A03DB5B6B002B00DDC0
:1008D00008BD0248FFF7A4FF6C1E002060A70008B7
:1008E000F8B50446FFF7ECFF34B161684B0703D15C
:1008F000A36813F0070502D02348FFF791FF994240
:10090000FAD25A1AC72AF7D9E068FF28F4D827691B
:10091000002FF1D01D4A43F82C1C4FF0020E012687
:100920006169246803F828EC03F8275C03F8266C57
:1009300043F8382C5669DFF858E043F86C7C43F8EC
:10094000681C43F8304CA3F14801A3F11C04A3F147
:100950006C0CA3F1200743F8400C43F80C0C43F84F
:10096000105C43F8145C43F8346C43F83CCC43F817
:100970004CEC08463161516143F8207C43F81C4C33
:1009800043F8184CF8BD00BF0CA600086C1E0020F0
:10099000A5020008000000000000000000000000A8
:1009A00070B51A4E3368B5691C6834600122666000
:1009B00083F82020B361FFF783FF0DB395F8203053
:1009C000F3B10F2B1CD00023AA6885F8203000E07B
:1009D0002468A3689342FBD863686B602C60284648
:1009E0001D60656009F07CF9EFF30983EA69243B37
:1009F0009A4208D82946B069BDE87040FFF74ABC62
:100A00000348FFF70DFF0348FFF70AFF6C1E0020A5
:100A1000F8A5000870A70008000000000000000012
:100A200008B5FFF715FFFFF74BFF064B1A689B69E8
:100A300092689B689A4200D808BDBDE80840FFF75D
:100A4000AFBF00BF6C1E00200000000000000000CF
:100A500010B50446FFF734FFA4B194F820308BB1F1
:100A60000F2B0FD00022A168084B84F820201B68B0
:100A70009A688A42FBD25A686260236020461460FA
:100A80005C6010BD0248FFF7CBFE00BF6C1E00206B
:100A9000A8A5000800000000000000000000000001
:100AA00038B504460D46FFF70BFFBCB1616B94F8F7
:100AB000203029430A2B61630CD00B2B00D038BDAA
:100AC000636A8B43FBD1002363622046BDE8384054
:100AD000FFF7BEBF636A1942F5D138BD0148FFF781
:100AE0009FFE00BFB4A60008000000000000000048
:100AF00070B506460D46FFF7E3FE8EB13468A64298
:100B00000DD0E3682B43E36015B12269134203D093
:100B1000A1686068FFF7C4FF2468A642F1D170BDE8
:100B20000148FFF77DFE00BF40A60008000000005E
:100B30001E4B2DE9F0410646D3F81880FFF788FEDA
:100B40002EB1D8F8383013B19A68904502D01848C1
:100B5000FFF766FE9E42FAD1F468C8F83840FFF706
:100B600077FE3768BE421CD0D8F83C505CB1FFF726
:100B70006FFE23689C4203D09B689D4238BF1D4690
:100B8000E468002CF3D13B68BA6BC8F808503846CB
:100B900033605E60B760F260BE63BDE8F041FFF7AE
:100BA00057BF0023B360BDE8F08100BF6C1E00207A
:100BB000A4A60008000000000000000000000000E3
:100BC000374B70B505469C69FFF742FE1DB3A86818
:100BD00000285FD0A26883689A4207D990F8203035
:100BE0008260062B3DD0072B27D0DBB12B4603E0DC
:100BF0009968A268914202D31B689D42F8D15A6855
:100C000062602360062014605C606562FFF730FE5E
:100C1000AB689C4202D02348FFF702FEA36B9D42C3
:100C2000F9D170BD90E80C00012180F820101A6005
:100C300002685360FFF70CFFD8E790E80A001960DC
:100C400001684B60466A334602E099688A4202D8DE
:100C50001B689E42F9D15A68426003601060586078
:100C6000C4E790E80A00196001684B60466A3346A1
:100C700002E099688A4202D81B689E42F9D15A68FC
:100C80004260036010605860B068A2688368934255
:100C9000A4D3ABE7A36BEB60AC60A56370BD00BFF2
:100CA0006C1E0020C0A5000800000000000000002D
:100CB00010B50446FFF704FE2CB1A3682268002B90
:100CC00004DB944204D00A48FFF7AAFD9442FAD00C
:100CD0000133002BA36000DD10BD136823600021E9
:100CE0005C6051621046BDE81040FFF7B1BE00BF26
:100CF00084A60008000000000000000000000000C2
:100D000008B5114B9C69A36A606204F128059D42F5
:100D100007D01A68A2621846FFF79AFEA36AAB4290
:100D2000F7D194F8223043B994F821309B0704D1CD
:100D3000636922691A61226953610F20FFF798FDE8
:100D40000248FFF76DFD00BF6C1E0020D4A600080E
:100D500070B5194D04460E46FFF77AFD2B68A86959
:100D6000AB4227D09A68836893421DD3A26866621B
:100D7000934214D2FFF76CFE012384F8203006461C
:100D8000AC6108F0ADFFEFF30983F269243B9A42AE
:100D90000DD831462046BDE87040FFF77BBA2046AB
:100DA000BDE87040FFF754BE0448FFF739FD044822
:100DB000FFF736FD8368D9E76C1E002094A6000873
:100DC00070A7000800000000000000000000000004
:100DD00010B50446FFF774FD002C33D0E368002BF8
:100DE00030D01C4BDA6994420FD0616822680A60E7
:100DF00022681C3300209A425160E06004D0A16850
:100E000093680B44936010BD10BD1946226841F8E9
:100E10001C2F00208A425160E06016D09068A468C0
:100E2000996A04444FF080409460406A421A9442A8
:100E3000EAD9A31A022B2CBFC0180230BDE810401B
:100E400002F03EBE0448FFF7EBFC4FF08043D86051
:100E500010BD00BF6C1E002024A60008000000008A
:100E60002DE9F04106460C4617461D46FFF728FDC2
:100E70007EB377B36CB3DFF8A88035614346022CAC
:100E800053F81C5FF7604FF08042214638BF0221C3
:100E90009D42546A29D0D8F82800AB68241A6418F7
:100EA0001AD29C421CD39C4204D92D68E41AAB6828
:100EB000A342FAD36B68736035601E606E60B460E5
:100EC000AB684FF0FF321C1BAC60C8F82420BDE8B3
:100ED000F0811148FFF7A4FC2D68E41AAB68E2E743
:100EE000204402F0EDFDAB68DDE7C8F82840C8F803
:100EF0001C60C8F82060B160D368356013F002034D
:100F0000756006D10C44022154631361D160BDE8C1
:100F1000F0810248FFF784FCB4A5000810A7000880
:100F20006C1E002000000000000000000000000017
:100F300070B50C4686B00646FFF78AFC631C14D0D9
:100F40000E4D0F4AAB69214601A8FFF789FF3046D5
:100F5000FFF78EFCFFF7B4FC049B13B101A8FFF769
:100F600037FFAB69586A06B070BD044D3046FFF7D5
:100F70007FFCAB69586A06B070BD00BF6C1E0020D4
:100F8000A1110008000000000000000000000000A7
:100F900038B504460D46FFF75BFC2CB1A368226808
:100FA000002B04DB944204D00E48FFF739FC944236
:100FB000FAD05A1E002AA26001DB002038BD6DB1B4
:100FC000094B9B695C6262685A601C602946136029
:100FD00005206360BDE83840FFF7AABFA3604FF06B
:100FE000FF3038BD64A600086C1E00200000000021
:100FF00061B1084B10B4024644689B69042083E841
:1010000014002360536010BCFFF792BF4FF0FF3015
:10101000704700BF6C1E00200000000000000000B0
:1010200010B50446FFF74CFCE20713D52B4A1168B4
:10103000914247D000230968914203F10103FAD19C
:10104000486888423CD04068904203F1FF33FAD1AF
:10105000002B35D1A30714D5204A104650F81C1F89
:10106000814235D000230968814203F10103FAD19E
:10107000126A8A4224D05268824203F1FF33FAD1C5
:10108000F3B914F004001AD0144A1369934211D032
:1010900000201B69934200F10100FAD1596999427D
:1010A0000ED04969914200F1FF30FAD1003018BFEB
:1010B000012010BD596999424FF00000F1D110BDD7
:1010C000012010BD5068904218BF0023BBD1C1E77A
:1010D000126A824218BF0023CDD1D2E76C1E0020D5
:1010E00008B5202383F31188064A136B002B01DD1A
:1010F000516B11B10448FFF793FB013B136381F37C
:10110000118808BD6C1E002030A7000800000000F8
:1011100008B5202383F31188064A136B002B01DBEB
:10112000516B11B10448FFF77BFB0133136381F36B
:10113000118808BD6C1E002028A7000800000000D0
:1011400008B5064B1A6B002A05DD5A6B002A02DD32
:1011500000225A6308BD0248FFF762FB6C1E0020A4
:1011600058A7000800000000000000000000000078
:1011700008B5064B1A6B002A01DD5A6B12B1044800
:10118000FFF74EFB01225A6308BD00BF6C1E002012
:1011900040A7000800000000000000000000000060
:1011A00038B50446202383F31188FFF7E1FF94F854
:1011B0002030072B10D8DFE803F0150F0F1B0A04AF
:1011C0000F0A656AFFF77CFBAB680133AB6094E8FC
:1011D0000C001A60226853604FF0FF3363622046B0
:1011E000FFF736FCFFF7ACFF002383F3118838BD0F
:1011F000636A00221A604FF0FF3363622046FFF7F4
:1012000027FCEFE7000000000000000000000000E5
:1012100008B5054B1A6B22B9596B002901DD5A63D9
:1012200008BD0248FFF7FCFA6C1E002050A700081A
:1012300008B5FFF7EDFF084B1A689A4204D0996988
:1012400093688A689A4203D3002383F3118808BD08
:101250000248FFF7E5FA00BF6C1E0020D8C4000862
:1012600008B5054B1A6B0AB95A6B12B10348FFF760
:10127000D7FA01225A6308BD6C1E002038A7000867
:1012800070B586B016461D460C4608F0C1FD002814
:1012900033D004440A9B0493A0420B9B0593029411
:1012A00000960190039538BF552303D200F8013B07
:1012B0008442FBD1202383F31188FFF7D1FF6846D6
:1012C000FFF70EFB012380F8213000210446FFF7D1
:1012D0003FFDFFF79DFF0A4B1A689A4204D09969B7
:1012E00093688A689A4205D3002383F311882046C5
:1012F00006B070BD0348FFF793FA0446F7E700BF56
:101300006C1E0020E4C40008000000000000000083
:1013100038B504460D46202383F31188FFF7A0FF5C
:1013200094F820300D2B02D00D48FFF779FAFFF723
:101330008FFA29462046FFF70BFDFFF769FF094B9F
:101340001A689A4204D0996993688A689A4203D3CA
:10135000002383F3118838BD0348FFF761FA00BF0B
:10136000E8A500086C1E002090A500080000000001
:1013700070B5202383F31188154CFFF771FFA66920
:10138000FFF79EFA334653F82C5F9D4217D02A6828
:10139000F2620D21536085F82010FFF739FF2368B2
:1013A000A34204D0A2699B6892689A4204D30023A6
:1013B00083F31188284670BD0648FFF731FA0E20E6
:1013C000FFF756FAA669F56A06F12C03DFE700BFBE
:1013D0006C1E002090A50008000000000000000026
:1013E000F8B5194EB46960B30F460546202383F360
:1013F0001188FFF735FF67622B6B636005F12C02E4
:1014000022601C6095F820302C630E2B15D00C2028
:10141000FFF72EFA646AFFF7FBFE3368B34204D08D
:10142000B2699B6892689A4204D3002383F31188BF
:101430002046F8BD0548FFF7F3F92846FFF708FBFB
:10144000E5E70348FFF7ECF96C1E002090A50008C3
:101450009CA5000800000000000000000000000043
:1014600038B50546202383F311880C4CFFF7F8FEAE
:10147000A369586B05435D63FFF7CAFE2368A34267
:1014800004D0A2699B6892689A4204D3002383F334
:101490001188284638BD0248FFF7C2F96C1E0020AB
:1014A000D8C4000800000000000000000000000098
:1014B00038B520B30D4611B30446202383F31188B9
:1014C000FFF7CEFE224602E09D4215D01A46136871
:1014D0009C42F9D1FFF79CFE0A4B1A689A4204D04D
:1014E000996993688A689A4203D3002383F3118829
:1014F00038BD0548FFF794F92B681360EAE7034805
:10150000FFF78EF96C1E0020D8C40008CCA5000897
:101510002DE9F843284FBD6950B10646202383F3D7
:101520001188FFF79DFEAB6B13B19A68954202D00C
:101530002248FFF775F99E42FAD1F468AC63FFF7D1
:1015400087F9D6F800904E4532D0D5F83C805CB192
:10155000FFF77EF923689C4203D09B68984538BF0B
:101560009846E468002CF3D1D9F80030D9F8382037
:10157000C5F80880484633605E60F260C6F808909F
:10158000C9F83860FFF764FAFFF74AFAFFF740FE40
:101590003B68BB4204D0BA699B6892689A4204D304
:1015A000002383F31188BDE8F8830548FFF738F975
:1015B0000023B360EAE700BF6C1E002058A60008B5
:1015C000C0C400080000000000000000000000008F
:1015D00010B52023044683F31188FFF741FE20460F
:1015E000FFF7EEFAFFF714FE074B1A689A4204D091
:1015F000996993688A689A4203D3002383F3118818
:1016000010BD0248FFF70CF96C1E0020C0C4000892
:1016100010B530B18368002B0446036804DB9842A0
:1016200004D01448FFF7FCF89842FAD0202383F343
:101630001188FFF715FEA3680133002BA36011DDAD
:10164000FFF7E6FD0C4B1A689A4204D0996993683B
:101650008A689A4203D3002383F3118810BD074898
:10166000FFF7DEF820680368236000215C60FFF765
:101670006FFBE5E778A600086C1E0020B4C40008E4
:1016800038B50446202383F31188FFF7E9FDFFF7FF
:10169000DFF82CB1A3682268002B04DB944204D04D
:1016A0001448FFF7BDF89442FAD0013B002BA36029
:1016B000114D12DB0024FFF7ABFD2B68AB4204D0C9
:1016C000AA699B6892689A4204D3002383F3118825
:1016D000204638BD0948FFF7A3F8AB695C62626831
:1016E0005A601C60052013606360FFF7C1F8AB69A6
:1016F0005C6AE0E734A600086C1E0020B4C4000851
:1017000070B5202304460E4683F31188FFF7A8FD29
:10171000FFF7D6F83CB1002E05DBA5682368002D45
:1017200004DB9C4204D01548FFF77AF89C42FAD0BB
:101730000135002DA660D8BF6FF0010609DC606896
:10174000436863601C60FFF783F90135012D466231
:10175000F5D1FFF765F9FFF75BFD094B1A689A426F
:1017600004D0996993688A689A4203D3002383F36B
:10177000118870BD0348FFF753F800BFDCA50008CF
:101780006C1E0020B4C4000800000000000000002F
:1017900038B5202383F311881B4CFFF761FDFFF759
:1017A00057F8FFF755F82368A06999688268914255
:1017B00010D2FFF72DFD2368A34204D0A2699B68D5
:1017C00092689A4203D3002383F3118838BD0F48EF
:1017D000FFF726F81A6822600121546083F8201070
:1017E000A361FFF735F9054608F07AFAEFF30983AC
:1017F000EA69243B9A4204D82946A069FEF74AFDCB
:10180000D7E70348FFF70CF86C1E0020A8C40008B7
:1018100070A70008000000000000000000000000A9
:1018200010B52023044683F31188FFF719FDACB1EE
:1018300021460820FFF77CFBFFF7EAFC094B1A68FA
:101840009A4204D0996993688A689A4203D3002324
:1018500083F3118810BD0448FEF7E2FF0348FEF74A
:10186000DFFF00BF6C1E0020A8C400080CB70008F2
:10187000FF2870B523D80446202383F31188114D27
:10188000FFF7EEFCAB69DE6B9A68964201D094429A
:1018900000D99C60DC63FFF7C3F8FFF7B9FC2B6845
:1018A000AB4204D0AA699B6892689A4204D3002391
:1018B00083F31188304670BD0348FEF7B1FF03483B
:1018C000FEF7AEFF6C1E0020A8C40008ECA60008BE
:1018D00008B50446202383F31188FFF7C1FC204696
:1018E000FFF70EFA000000000000000000000000FA
:1018F00070B52023044683F31188FFF7B1FC94F8F8
:101900002230B3B1013B84F82230236A03F0FF1385
:101910000F2B14D0FFF77CFC254B1A689A4204D099
:10192000996993688A689A4206D3002383F31188E1
:1019300070BD2048FEF774FF1F48FEF771FF636912
:1019400022691A6122691A4D5361FFF761FC2B6805
:10195000AB4204D0AA699B6892689A42ECD30023F8
:1019600083F3118894F8213003F00303012B1AD07C
:10197000022B17D1266CE469202383F31188FFF72B
:101980006FFC2146304602F0DBF8FFF741FC2B6884
:10199000AB42CAD0AA699B6892689A42C5D20748EE
:1019A000FEF73EFF70BDE069BDE8704002F028B967
:1019B0006C1E0020C4A60008A8C400082CAC0008B7
:1019C00070B52023064683F31188FFF749FC124CBB
:1019D0003569A5421ED095F82230FF2B17D0013370
:1019E00085F82230FFF714FC2368A34204D0A269D3
:1019F0009B6892689A4207D3002383F3118830468C
:101A0000FFF776FF284670BD0448FEF709FF04483B
:101A1000FEF706FF0025E5E76C1E002078AD000804
:101A200000A7000800000000000000000000000007
:101A300030B5202383B0044683F31188114DFFF79E
:101A40000FFC2869019090F82230013380F8223091
:101A5000FFF7DEFB2B680198AB4204D0AA699B68B4
:101A600092689A420BD3002383F3118802E0FFF7B8
:101A7000A7FF10B1C3699C42F9D103B030BD024841
:101A8000FEF7CEFE6C1E002078AD000800000000BE
:101A900070B560B30446202383F31188154DFFF71A
:101AA000DFFBAB699C4222D094F82220FAB194F873
:101AB00020200F2A05D0A26A1A600920A362FEF72F
:101AC000D7FE666AFFF7A4FB2B68AB4204D0AA6975
:101AD0009B6892689A4207D3002383F311882046BB
:101AE000FFF706FF304670BD0348FEF799FE034836
:101AF000FEF796FE6C1E0020A8C40008E0A60008B1
:101B0000EFF30583C3F3080323B9202383F311887C
:101B1000FFF7A6BB202383F31188FFF729BB00BF83
:101B200008B5044B1A6B0AB95B6B13B10248FEF798
:101B300077FE08BD6C1E002020A7000800000000F2
:101B400008B5044B1A6B0AB95B6B13B10248FEF778
:101B500067FE08BD6C1E002048A7000800000000BA
:101B600008B5EFF30583C3F3080383B9FEF758FF05
:101B7000FFF74EFB0A4B1A689A4204D099699368A2
:101B80008A689A4209D3002383F3118808BDFFF7BE
:101B9000D7FA002383F3118808BD0248FEF740FE00
:101BA0006C1E002084A5000800000000000000005A
:101BB000FEE700BF00000000000000000000000081
:101BC000F0B5124F124D134C134B144907F1800E10
:101BD00000269C4211D904391A4651F8040F42F8E4
:101BE000040B9442F9D8DA43144424F00304043477
:101BF00023449D4203D943F8046B9D42FBD8103720
:101C0000774502D297E83A00E3E7F0BD80A70008E5
:101C1000402700204027002040270020DCC9000882
:101C2000FEE700BF00000000000000000000000010
:101C3000704700BF0000000000000000000000002E
:101C4000704700BF0000000000000000000000001E
:101C500038B5064C05462046FFF7BAFC287807F051
:101C6000CFFE2046BDE83840FFF752BC500C0020A4
:101C7000024B00221B605B609A6070473427002093
:101C8000FFF7F6BF000000000000000000000000A9
:101C9000FFF7EEBF000000000000000000000000A1
:101CA000FFF7E6BF00000000000000000000000099
:101CB000024B01221B605B609A6070473427002052
:101CC00010B5064C4FF4FA70FFF7AAFD2046FFF757
:101CD0007FFC2046BDE81040FFF71ABC500C0020E6
:101CE00000210148FFF70CBD342700200000000050
:101CF00006F046BE000000000000000000000000EA
:101D000006F03EBE000000000000000000000000E1
:101D10001E4B1F4A9B691F48996870B51E4D1F4C8A
:101D20000131002301262E6008F012F91C4A02231B
:101D300010602B6008F08CF920681A49001BB0FA7B
:101D400080F0400907F034FD00B170BDA06816496D
:101D5000B0FA80F0400907F02BFD0028F5D10323ED
:101D60002B6008F075F920680E49001BB0FA80F06E
:101D7000400907F01DFD0028E7D1A0680A49B0FA24
:101D800080F04009BDE8704007F012BD6C1E0020D5
:101D900011880008A80C0020FC1D0020342700201A
:101DA00030130020A8A80008B8A800080000000010
:101DB0002DE9F843DFF8E0802C4FD8F818302C4E8E
:101DC0009968DFF8D8902B4B2B4D3A4605313046B9
:101DD0000124C9F8004008F0BBF8D8F81830286092
:101DE0009968264B264C3A46013106F5A47008F056
:101DF000AFF8D8F8183068609968224B3A4603313A
:101E000006F5247008F0A4F8D8F81830A86099688E
:101E10001D4B3A46043106F5767008F099F8D8F86B
:101E20001830E8609968194B02313A4606F5A4600B
:101E300008F08EF8022328612046C9F80030FFF729
:101E4000E7FB2046FFF7E4FB2046FFF7E1FB2046D7
:101E5000FFF7DEFB2046FFF7DBFB06F091FD0C49A8
:101E60000C48BDE8F84307F07BBC00BF3188000890
:101E7000A80C002058A80008301300205CA8000817
:101E80003427002060A80008F4B100087CA80008EE
:101E900064A8000878A800086C1E0020FC1D002023
:101EA000F8B506462148FFF793FB202383F31188FA
:101EB0001F4DFFF7D5F9AC69FEF7CAFCA76B002FE1
:101EC00030D03846FEF734FE1A486062034603E01D
:101ED0009968A268914202D31B688342F8D15A687C
:101EE00062602360072014605C60FEF7C1FC384626
:101EF000FEF766FEFFF78CF92B68AB4204D0AA69A7
:101F00009B6892689A420AD3002383F31188307841
:101F100007F076FD0548BDE8F840FFF7F9BA064836
:101F2000FEF77EFC0548FEF77BFC00BF500C00204E
:101F30006C1E0020480C0020CCC400080CA800082F
:101F400008B540F2DC50FFF76BFC202383F31188C7
:101F5000FFF786F90C48FEF733FE0B48FEF7E8FD65
:101F6000FEF75EFDFFF754F9084B1A689A4204D059
:101F7000996993688A689A4203D3002383F311888E
:101F800008BD0348FEF74CFC240C00206C1E00200A
:101F900018B400080000000000000000000000006D
:101FA000F0B5A74E85B001AC012200230393326047
:101FB00001940294202383F31188FFF751F9FEF76F
:101FC0007FFC03989F490028CCBF0020012007F028
:101FD000EFFB80B1FFF71CF99B4B1A689A4205D0C2
:101FE000996993688A689A42C0F01F81002383F33D
:101FF000118805B0F0BD944DFFF70AF92B68AB428C
:1020000005D0AA699B6892689A42C0F00E810021AF
:1020100081F31188022320463360FFF771FB2023F0
:1020200083F31188FFF71CF9FEF74AFC03988549F2
:102030000028CCBF0020012007F0BAFB002840F0A8
:10204000E880FFF7E5F82B68AB4205D0AA699B68EA
:1020500092689A42C0F0E980002383F31188AB694B
:102060007A4A99687A48013923460327376007F08E
:102070006FFF784A0423106020463360FFF700FBAF
:102080002023074683F31188FFF7EAF8FEF718FCD0
:1020900003986C490028CCBF0020012007F088FB82
:1020A000002840F0B680FFF7B3F82B68AB4205D0AC
:1020B000AA699B6892689A42C0F0B780002383F3B4
:1020C0001188B7FA87F04009634907F071FB0028CF
:1020D0008FD105233360202383F31188FFF7C0F8E5
:1020E000FEF7EEFB039B002B40F3A280FEF798FC6B
:1020F000FFF78EF82B68AB4205D0AA699B689268FF
:102100009A42C0F09280002383F31188202383F346
:102110001188FFF7A5F8FEF7D3FB03984F49002875
:10212000D4BF0020012007F043FB002871D1FFF746
:102130006FF82B68AB4204D0AA699B6892689A42F8
:1021400073D3002383F31188202383F31188FFF7CF
:1021500087F8FEF7B5FB03984149A0F10100B0FAFA
:1021600080F0400907F024FB002852D1FFF750F817
:102170002B68AB4204D0AA699B6892689A4254D3F8
:10218000002383F3118806233360202383F311880F
:10219000FFF766F8FEF794FB039B002B4CDDFEF780
:1021A0003FFCFFF735F82B68AB4204D0AA699B6867
:1021B00092689A4239D3002383F31188202383F352
:1021C0001188FFF74DF8FEF77BFB0398254900289F
:1021D000D4BF0020012007F0EBFAD0B9FFF718F8C0
:1021E0002B68AB4204D0AA699B6892689A421CD3C0
:1021F000002383F31188202383F31188FFF730F83D
:10220000FEF75EFB03981649431E5842584107F0FB
:10221000CFFAFEF7FDFF2B68AB423FF4E7AEAA69A9
:102220009B6892689A42BFF4E1AE0F48FEF7F8FA55
:102230002046FEF73DFD59E72046FEF739FDAEE7A3
:10224000FC1D0020CCA800086C1E0020B126000850
:10225000A80C002030130020D8A80008ECA8000823
:10226000F8A80008D0A8000800A800080000000096
:10227000F8B53E4E3E4CB2693E4B91683E483F4AEF
:1022800001310125256007F063FE3D4B02251860F2
:102290002560202383F311883A4CFEF7E1FFFEF717
:1022A0000FFBA3682268002B04DBA24204D036484F
:1022B000FEF7B6FAA242FAD0002703E0012D0ED0B5
:1022C000A36801250133002BA360F7DC20680368B5
:1022D00023605C60FEF7BCFB012D4762F0D1FEF786
:1022E0009FFBFEF795FF3368B34204D0B2699B6849
:1022F00092689A4228D3002383F3118806F040FBAA
:10230000202383F31188FEF7ABFFFEF7D9FAA0680C
:102310001E49A0F10100B0FA80F0400907F048FA28
:10232000A8B9FEF775FF3368B34204D0B2699B6861
:1023300092689A4208D3002383F3118814490D4808
:10234000BDE8F84007F00CBA1248FEF769FAFEF74C
:102350005FFF3368B34204D0B2699B6892689A42C7
:10236000F2D3002383F31188F8BD00BF6C1E002058
:10237000FC1D002058A80008A80C00203188000887
:10238000301300203427002018A8000898A800085F
:1023900064A8000800A80008000000000000000079
:1023A0002DE9F84F6B4D01232B60202383F3118817
:1023B000FEF756FF00216848684CFEF7E9FD064627
:1023C000FEF726FF2368A34205D0A2699B689268A6
:1023D0009A42C0F0BC80002383F31188A6F1FF303D
:1023E000B0FA80F05E49400907F0E2F908B1BDE8B3
:1023F000F88F594E5B493068801BB0FA80F0400975
:1024000007F0D6F90028F2D1B0685749B0FA80F049
:10241000400907F0CDF903460028E8D1A169534AE5
:1024200089685348013902272F6007F091FD514A0E
:102430002023106083F31188FEF712FF41F28831E8
:102440003046FEF7A5FD0746FEF7E2FE2368A342ED
:1024500004D0A2699B6892689A4278D3002383F3E0
:10246000118806F08DFAB7FA87F040093C4907F069
:102470009FF90028BBD130683A49801BB0FA80F040
:10248000400907F095F90028B1D1B0683649B0FA93
:1024900080F0400907F08CF90028A8D103232B60B5
:1024A00006F096FE2C4FDFF8B890DFF8B880412593
:1024B0008246284607F0A4FA202383F31188FEF70A
:1024C000CFFE4FF4FA713846FEF762FD8346FEF701
:1024D0009FFE2368A34204D0A2699B6892689A4237
:1024E00035D3002383F31188ABF1FF30B0FA80F0CD
:1024F0004009494607F05CF900287FF478AF30685E
:10250000801BB0FA80F04146400907F051F90028DD
:102510007FF46DAFB0681449B0FA80F0400907F05D
:1025200047F900287FF463AF0135EDB2462DC0D1E5
:102530001149124807F014F900287FF458AF0AF641
:10254000D8110AF6C410BDE8F84F01F0F1BE0C48EE
:10255000FEF766F9FC1D0020342700206C1E0020C9
:1025600080A80008A8A80008B8A80008418B0008A7
:10257000A80C00203013002064A8000878A80008E8
:10258000B4C40008000000000000000000000000CB
:10259000F8B5414C414E012320463360FFF770F8F7
:1025A0002023074683F31188FEF75AFEFEF788F9C9
:1025B000A0683B49B0FA80F0400907F0F9F800281C
:1025C0005BD1384DFEF724FE2B68AB4204D0AA69DC
:1025D0009B6892689A424DD3002383F31188B7FA1F
:1025E00087F04009304907F0E3F800B1F8BD022355
:1025F00029483360FFF70CF8202383F31188FEF796
:102600002FFEFEF75DF9A0682549A0F10100B0FAA0
:1026100080F0400907F0CCF810BBFEF7F9FD2B68FD
:10262000AB4204D0AA699B6892689A4222D30023E5
:1026300083F311880323022117483360FFF760F802
:10264000202383F31188FEF70BFEFEF739F9A0680B
:102650001349A0F10200B0FA80F0400907F0A8F891
:10266000FEF7D6FD2B68AB4212D0AA699B68926830
:102670009A420DD20D48FEF7D3F8FEF7C9FD094B7B
:102680001A689A4204D0996993688A689A42F1D389
:10269000002383F31188F8BD34270020FC1D00209F
:1026A0002CA800086C1E002040A8000800A8000804
:1026B00010B52023044683F31188FEF7D1FDFEF701
:1026C000FFF8A368002B13DDFEF7AAF9FEF7A0FDC3
:1026D000094B1A689A4204D0996993688A689A42A9
:1026E00003D3002383F3118810BD0448FEF798F844
:1026F0002046FEF7DDFAE7E76C1E002000A8000880
:10270000704700BF00000000000000000000000053
:102710002DE9F04383B002ACDFF8D080DFF8D09031
:102720002D4F2E4E2E4D0122002344F8043DC9F8B2
:10273000002006F04DFDD8F8183099683A46234637
:102740000139304607F004FCD8F818302860996841
:102750003A462346013906F5A47007F0F9FBD8F88C
:102760001830686099683A462346013906F52470A6
:1027700007F0EEFBD8F81830A86099683A4623466F
:10278000013906F5767007F0E3FBD8F81830E860F9
:1027900099683A460139234606F5A46007F0D8FB4C
:1027A0000223286142F21070C9F80030FFF738F8B0
:1027B00006F036FD06F0E4F803230A48C9F80030B5
:1027C00006F036FE019806F04BFE074806F010FEB4
:1027D00003B0BDE8F08300BF01280008A80C00206A
:1027E00030130020B8AA0008C8AA00086C1E0020F8
:1027F000FC1D0020000000000000000000000000A0
:1028000038B5094D0446FEF7C3FFFEF7C1FFFEF7DA
:10281000BFFFFEF7BDFF2368AA690433236092F867
:1028200021305B07EFD538BD6C1E00200000000092
:102830002DE9F041354DDFF80481AB69344A9968E0
:102840003448354C354F01230531C8F8003000239A
:1028500007F07EFBAB69206099682D4A304804314F
:10286000002307F075FBAB6960609968284A2D4822
:102870000331002307F06CFBAB69A0609968244A20
:1028800029480231002307F063FBAB69E0609968D7
:102890001F4A26480131002307F05AFB022320611A
:1028A000C8F8003006F094FC002406464FF080453E
:1028B00000213846FEF724FF6B6A42F20F729B1B21
:1028C000934204F10104F3D90323C8F8003006F061
:1028D000A7FC00211148FEF713FF06F051F804236E
:1028E0001348C8F8003006F0A3FD204606F0B8FDF6
:1028F00004EB44040F4806F09BFD600006F0B0FDB9
:102900000D48BDE8F04106F073BD00BF6C1E00200D
:1029100041290008A80C002030130020F01D0020E1
:10292000F00D0020380F002080100020C81100207A
:10293000B8AA0008A4AA0008C8AA0008FC1D002024
:1029400038B5084CA36993F821305A0708D4064DCE
:102950002846FEF795FEA36993F821305B07F7D56B
:1029600038BD00BF6C1E0020F01D002000000000DC
:10297000024B00221B605B609A607047F01D0020D4
:10298000034B00224FF4A47159601A609A6070479B
:1029900028270020000000000000000000000000C8
:1029A0002DE9F843174BDFF86C909B69DFF86880DE
:1029B0009D68154F01231D44C9F8003006F008FC3E
:1029C00000240646002342462946384607F0C0FA4E
:1029D000FEF78EFF4FF0804342F20F725B6A9B1B43
:1029E000934204F10104EDD902230848C9F80030EC
:1029F00006F01EFD204606F033FD0548BDE8F8430D
:102A000006F0F6BC6C1E0020A80C0020B8AA000836
:102A100098AA0008FC1D00204132000800000000B8
:102A20002DE9F843174BDFF86C909B69DFF868805D
:102A30009D68154F0123C9F8003006F0C9FB013D20
:102A400000240646002342462946384607F080FA0D
:102A5000FFF71EF84FF0804342F20F725B6A9B1B38
:102A6000934204F10104EDD902230848C9F800306B
:102A700006F0DEFC204606F0F3FC0548BDE8F8430E
:102A800006F0B6BC6C1E0020A80C0020B8AA0008F6
:102A900098AA0008FC1D0020413200080000000038
:102AA0000849094B10B40022CC2481E8140003F13A
:102AB00010009960DA60186158611A609A6110BC60
:102AC000704700BFA80C0020880C00200000000008
:102AD00010B5FEF74DFC90F820200D2A02D00548D5
:102AE000FDF79EFE446A2146FEF712FC002CF0D151
:102AF00010BD00BF0CA9000800000000000000008D
:102B00002DE9F041054606F063FB002480464FF0B6
:102B1000804742F20F7601212846FEF761FC7B6A6E
:102B2000A3EB0803B34204F10104F4D928460021C1
:102B3000FEF756FC2046BDE8F08100BF0000000013
:102B40002DE9F0412C4E2D4DB3692D4F99682D4A3A
:102B50002D4CDFF8C4804FF0010E013128460023D0
:102B6000C7F800E007F0F4F9B369206099684FF006
:102B7000020E4246023905F5A4700023C7F800E0B2
:102B800007F0E6F9B369606099684246033905F5D4
:102B90002470002307F0DCF9B369A060996842460D
:102BA000043905F57670002307F0D2F9B369E060C7
:102BB00099684246053905F5A460002307F0C8F975
:102BC0000323206120683B60FFF79AFF044605F06D
:102BD000D7FE04230D483B6006F02AFC204606F091
:102BE0003FFC0B4806F024FC600006F039FC094865
:102BF000BDE8F04106F0FCBB6C1E0020A80C0020D4
:102C0000FC1D0020D12A000830130020B8AA0008BB
:102C10008CAA0008C8AA0008413200080000000081
:102C200038B5144B144C9B69144A99681448013107
:102C300001250023256007F08BF9124A022310605A
:102C40002360FFF75DFF054605F09AFE03230E485B
:102C5000236006F0EDFB284606F002FC0B4806F068
:102C6000E7FB680006F0FCFB0948BDE8384006F0C9
:102C7000BFBB00BF6C1E0020FC1D0020D12A000835
:102C8000A80C002030130020B8AA00088CAA000865
:102C9000C8AA0008000000000000000000000000BA
:102CA00038B5144B144C9B69144A9968144801397F
:102CB00001250023256007F04BF9124A022310601A
:102CC0002360FFF71DFF054605F05AFE03230E485B
:102CD000236006F0ADFB284606F0C2FB0B4806F069
:102CE000A7FB680006F0BCFB0948BDE8384006F0C9
:102CF0007FBB00BF6C1E0020FC1D0020D12A0008F5
:102D0000A80C002030130020B8AA00088CAA0008E4
:102D1000C8AA000800000000000000000000000039
:102D200005F096BD0000000000000000000000005B
:102D30002DE9F041464B474C9B6947489E6886B059
:102D4000022305A904AA236000F022FF0546A0F192
:102D50000100B0FA80F04009404906F029FD10B1A9
:102D600006B0BDE8F0813E4BDFF8308101930321CE
:102D70002160CDF800804FF4A471731E394A3648A3
:102D8000394FFEF77DFA3860003018BF012037490F
:102D900006F00EFD0028E3D1354B01930421B31E4C
:102DA0002160CDF800804FF4A471324A2A48FEF722
:102DB00067FA0346003018BF01202C497B6006F0FB
:102DC000F7FC0028CCD12C4A0192F31E2B49CDF8F8
:102DD000008005262A4A20482660FEF751FA03465D
:102DE000B0FA80F0F0402749BB6006F0E1FC002813
:102DF000B6D10623236005F0C3FD2349234806F01E
:102E0000AFFC0028ACD1072303A902AA1248236013
:102E100000F0BEFE281AB0FA80F01D49400906F005
:102E2000C7FC00289CD10598039B1A49C01AB0FA28
:102E300080F0400906F0BCFC002891D10498029B68
:102E40001549C01AB0FA80F0400906F0B1FC87E7D6
:102E50006C1E0020FC1D0020880C00209CA900088E
:102E600058A80008ACA9000830130020B4A9000835
:102E70005CA80008CCA9000860A80008C8000200EF
:102E8000D4A90008DCA9000864A80008F8A9000873
:102E9000FCA9000814AA000830AA0008212D000887
:102EA00070B5144C82B001236A4601A9002023604A
:102EB00000F06EFE1021104806F0AAFF0646003012
:102EC00018BF01200D4906F073FC80B90546304655
:102ED00000F096FE02236FF0FF012846236006F003
:102EE00097FFB0FA80F04009054906F061FC02B096
:102EF00070BD00BFFC1D00201013002070A9000849
:102F000084A900080000000000000000000000008C
:102F10002DE9F041C04CC14884B00123694600222C
:102F2000236000F035FEA0F10100B0FA80F0BC494A
:102F3000400906F03DFC10B104B0BDE8F081022369
:102F40004FF44D61B548236006F062FFB0FA80F09F
:102F50004009B44906F02CFC0028EDD103231021D0
:102F6000AE48236006F054FF0546003018BF01202C
:102F7000AD4906F01DFC0028DED1284600F040FED9
:102F8000042302A903AAA548236000F001FE03461A
:102F9000A0F10100B0FA80F04009A449019306F0C5
:102FA00007FC0028C8D10298A1490F2894BF00202F
:102FB000012006F0FDFB0028BED10298039B9C492E
:102FC000C01AB0FA80F0400906F0F2FB054600286E
:102FD000B2D1052310219148236006F019FF10217A
:102FE00080468E4806F014FF102107468B4806F0F5
:102FF0000FFF0646404600F003FE384600F000FE94
:10300000304600F0FDFD2A4601A9844800F0C0FDCD
:10301000A0F10100B0FA80F08149400906F0C8FB38
:103020000546002888D1062310217C48236006F03D
:10303000EFFE10210646794806F0EAFE1021074609
:10304000764806F0E5FE00F0DBFD384600F0D8FDDE
:10305000304600F0D5FD2A4601A9704800F098FDE1
:10306000A0F10100B0FA80F06D49400906F0A0FB24
:10307000054600287FF460AF0723112167482360CD
:1030800006F0C6FE10210646644806F0C1FE07465B
:10309000304600F0B5FD2A4601A9604800F078FDF1
:1030A000A0F10208D8F10000624940EB080006F0E8
:1030B0007FFB054600287FF43FAF1021574806F0FC
:1030C000A7FE2A46064601A9544800F061FD0128E2
:1030D00000F09F80002201A9504800F059FDA0F1A6
:1030E000020CDCF1000040EB0C004D4906F060FBE7
:1030F000054600287FF420AF384600F081FD3046B9
:1031000000F07EFD2A4601A9444800F041FD00F18F
:10311000FF3EDEF10000424940EB0E0006F048FBA6
:10312000054600287FF408AF082310213B482360A0
:1031300006F06EFE10210746384806F069FE064686
:10314000384600F05DFD2A4601A9344800F020FD14
:10315000871E78423749784106F02AFB0546002849
:103160007FF4EAAE20212D4806F052FE00F048FD23
:10317000304600F045FD2A4601A9284800F008FD28
:10318000451E68422649684106F012FB02460028A7
:103190007FF4D2AE092301A92048236000F0F8FC97
:1031A00001991E4806F034FE064600301E4918BF3D
:1031B000012006F0FDFA024600287FF4BDAE01466C
:1031C000164800F0E5FCB0FA80F040091A4906F014
:1031D000EFFA054600287FF4AFAE304600F010FD50
:1031E0002A4601A90A230D48236000F0D1FC421EA3
:1031F000504250410A4906F0DBFA00287FF49CAEA9
:103200000198009B0D49C31A5842584106F0D0FA64
:1032100092E6012069E700BFFC1D0020101300208A
:103220009CA9000884A9000870A9000818A9000832
:103230002CA9000844A9000854A9000860A90008A6
:10324000FEF746BB00000000000000000000000088
:103250002DE9F84F394DDFF80081AB69384A99689C
:103260003848013101240023C8F8004006F070FE00
:10327000354A022304461060C8F8003005F0A8FF64
:103280000026B346824620274FF0804987F31188F5
:10329000FDF7E6FF20460021FDF75AFD20460021FC
:1032A000FDF756FD20460021FDF752FD2046002186
:1032B000FDF74EFDFDF7ACFF2B68AB4204D0AA69C9
:1032C0009B6892689A4235D38BF31188D9F82430E1
:1032D00042F20F72A3EB0A03934206F10406D5D91A
:1032E0000323C8F80030202383F31188FDF7B8FFCB
:1032F00020464FF0FF31FDF72BFDFDF789FF2B68CE
:10330000AB4204D0AA699B6892689A4212D3002308
:1033100083F3118805F034FB04230C48C8F800300F
:1033200006F086F8700006F09BF80948BDE8F84FF3
:1033300006F05EB80748FDF773FA00BF6C1E002068
:1033400061330008A80C002030130020B8AA000840
:10335000C8AA00086CAD0008FC1D00200000000099
:1033600038B50F4D2023AC6983F31188FDF778FF42
:103370000320FDF77DFA636A002BF9D0FDF748FFC3
:103380002B68AB4204D0AA699B6892689A4203D327
:10339000002383F3118838BD0248FDF741FA00BFCE
:1033A0006C1E00206CAD0008000000000000000052
:1033B0002DE9F84F484E494DDFF874B1484CDFF81D
:1033C00064810123336005F10C0A20274FF00009C6
:1033D00087F31188FDF744FF5946404600F0B0FBE3
:1033E000FDF716FF2368A34204D0A2699B68926888
:1033F0009A4206D389F31188554505D055F804BB88
:10340000E6E73848FDF70CFAA369374A9D68374864
:10341000374C0323691E336006F0BAFFA91E2060F3
:10342000344A354806F0B4FFE91E6060334A344838
:1034300006F0AEFF291FA060324A334806F0A8FF0D
:10344000324AE060691F324806F0A2FF236820611B
:1034500004223260002B3DD0606828B1A06818B10A
:10346000E068003018BF01202A4906F0A1F908B130
:10347000BDE8F88F20692849B0FA80F0400906F0CD
:1034800097F90028F4D10523336005F079FA234930
:10349000234806F065F90028EAD10623214F224D82
:1034A00033600424384600F01BFE003018BF0120B2
:1034B000294606F07DF90028DAD1013CF2D11948FD
:1034C00000F00EFEB0FA80F040091849BDE8F84F50
:1034D00006F06EB91846C7E7FC1D0020D8AA000800
:1034E0006C1E00202CAC000858A80008ACA90008ED
:1034F000301300205CA80008CCA9000860A80008D0
:10350000D4A90008F4B1000850AA00087CA800085B
:1035100058AA0008B4A90008DCA9000864A800089B
:1035200060AA00082827002068AA000878AA0008D6
:10353000A80C0020000000000000000000000000B7
:10354000704700BF00000000000000000000000005
:1035500090F85C3003F06003202B01D0002070470E
:1035600090F85D30212B03D0222B09D0202BF5D1F0
:10357000064B0365072200234265836501207047DF
:103580000023036543658365012070470008002020
:1035900080B400AFEFF30983203383F3098800235D
:1035A00083F31188BD4680BC704700BF0000000057
:1035B00070B50D460446FDF74BF9D5B1E369043B00
:1035C0009D4216D8E368A3B12369A1691D60E06933
:1035D000E26803448B42236124BF636A2361013A9A
:1035E000236BE2600022A26233B12046BDE8704046
:1035F00018470248FDF714F970BD00BFE8AB00089A
:1036000010B50446FDF724F9E3689BB16369E069EE
:10361000A169E26803448B42636124BF636A63610A
:10362000013A236BE2600022A26233B12046BDE87A
:10363000104018470148FDF7F3F810BD78AB0008BB
:1036400038B504460D46FDF703F907E0237A93B930
:1036500029462046FDF7CCFC00280EDBE368002B52
:10366000F4D0E36853B12369E1691A1D0B44A262E7
:10367000E362002038BD6FF0010038BD0148FDF75E
:10368000CFF800BFCCAB0008000000000000000035
:1036900038B504460D46FDF7DBF807E0237A93B909
:1036A00029462046FDF7A4FC00280EDBE368002B2A
:1036B000F4D0E36853B163691A6804331A44E262D0
:1036C000A362002038BD6FF0010038BD0148FDF74E
:1036D000A7F800BF5CAB000800000000000000007D
:1036E0002DE9F84304460E461546FDF7E9F81CB1EE
:1036F00015B12378042B02D05E48FDF791F80FFA3C
:1037000086F804EB8807FB68002BF5D16A69FD6039
:103710001AB1136053609360D360AB6923B1002288
:103720001A605A609A60DA60FB681A6802F0030255
:10373000022A5DD0032A5ED04F485049012A0CBFAF
:1037400081468946E56E99697201A8184FF0000E0E
:10375000C0F810EB002954D0588A06F158014901ED
:1037600040EA0900685006F1100ED5F81C08012146
:1037700001FA0EF10143C5F81C182A4459690020CA
:10378000C2F81009002950D09A8B198A606F012A5B
:103790004FEA910388BF53431918226F616752683B
:1037A00091422BD806F13F01E26E40EA034305EB5C
:1037B0008101B00140F020004B601061136999064F
:1037C000FCD41220FDF71CF8FB681A8A06F14803A6
:1037D00042EA86525B0142EA0902EA500121D5F829
:1037E0001C3801FA06F61E43C5F81C68BDE8F883CC
:1037F000DFF89490A6E7DFF89490A3E72048FDF760
:103800000FF805EB481106F1100ED1F8000B20F46B
:103810000040C1F8000BD5F81C18012000FA0EF08A
:1038200021EA0001C5F81C18A7E706F13F03E26E84
:10383000144805EB8303B10141F020015860116188
:1038400013699B06FCD405EB48181220FCF7D8FF3F
:10385000D8F8003923F40043C8F80039D5F81C38EB
:10386000012202FA06F623EA0603C5F81C38BDE871
:10387000F88300BFA0AB0008008004100080001097
:10388000D8B40008000400020080081000800C106A
:10389000F8B5D0F88C6437683B78042B01D0012050
:1038A000F8BD037A022BFAD133797A89012505FA1A
:1038B00003F31342F3D10446FDF702F8E269236AE9
:1038C0009A4209D00432EAD0384671794FF48073B5
:1038D00003F0C6FA0020F8BDA369002BDFD1F1E7A1
:1038E0000D3138B550F82140002C3BD0202383F314
:1038F0001188FDF73DFC201D0421FDF7F9F8D4F8EF
:103900008C241368527903EB8203DB689B695D6842
:10391000FCF7D6FF1DB3A36A043B9D421FD8E369A1
:10392000226A934218D01D60A06AA269616A0344AA
:1039300001328B42A261E36101D3236BE36104F1A5
:103940000C0006F00DFA2046FFF7A2FFFDF7F8FB8A
:10395000002383F3118838BDA269002AE3D002480E
:10396000FCF75EFF38BD00BF48AB00080000000058
:10397000406BFFF78DBF00BF00000000000000009B
:1039800038B504460D46FCF79BFF60692269824208
:1039900003D050F8043B2B6038BDE268002AF8D011
:1039A000002038BD00000000000000000000000002
:1039B000F0B500EB810383B01C6A0CB30E460546DC
:1039C000202383F3118800EB8107FDF7D1FB201D35
:1039D0000821FDF78DF8FB685B691B6893B94434D7
:1039E000204601A9FFF7CCFF38B3024631462846EE
:1039F000019B03F0C5F9FDF7A3FB002383F31188B6
:103A000003B0F0BDFCF75CFFA36D626D9A4224D059
:103A1000206E226DE16D034401328B422265A36565
:103A200001D3A36EA3654434204606F099F92046DD
:103A300001A9FFF7A5FF0028D7D1FB685A691268D2
:103A4000002AD8D01B8A013B1340D4D1314605F15E
:103A50005C02284603F094F9CDE7226D002AD7D006
:103A60000148FCF7DDFE00BFB4AB00080000000019
:103A700010B5446BD4F88C2413681978042982B0EB
:103A800001D002B010BD217A0229FAD111791A8928
:103A900001238B401342F4D101A904F14400FFF744
:103AA0006FFF02460028ECD0D4F88C04019B01790A
:103AB000006803F065F9E4E7000000000000000082
:103AC00008B54FF08043DA68920701D5586308BD06
:103AD0000148FCF7A5FE00BF3CAB00080000000059
:103AE000202383F31188114B5B6813F4006302D128
:103AF00083F31188704780B400AFEFF309834FF070
:103B0000807243F8042CA3F1200282F30988084A4A
:103B1000116892698968926891428CBF054A064A89
:103B200043F8082CBD4680BC704700BF00ED00E0A4
:103B30006C1E0020B9020008C4020008000000004A
:103B400038B504460D46FCF7BBFE24B11DB1236811
:103B50002B60256038BD0148FCF762FE24AB0008ED
:103B600010B50446FCF7ACFE64B1206810B10368E0
:103B7000236010BDA36823B160680421BDE8104034
:103B8000184710BD0148FCF74BFE00BF14AB0008FE
:103B90002DE9F843174C002818BF044604F110071C
:103BA000384689469046FDF713FDA368F3B100241B
:103BB0002546264658681B68844206F101060544DE
:103BC00038BF0446002BF5D1B9F1000F02D0ED004B
:103BD000C9F80050B8F1000F02D0E400C8F8004066
:103BE0003846FDF795FC3046BDE8F8831C461D4677
:103BF0001E46E9E7F8260020000000000000000053
:103C000070B528B34307054622D150F8043C50F85C
:103C1000084C0733DB0804F1100640F8043C083474
:103C20003046FDF7D5FCA5F1080123468B4205D8A7
:103C30005A68013203EBC202914209D3A3421A68C7
:103C400001D08B4202D232B1914204D31346EDE748
:103C50001A48FCF7E5FD45F8082C196055F8042CC6
:103C600055F8084C013201EBC200A0420AD0586856
:103C7000421C03EBC202914212D03046BDE87040B4
:103C8000FDF746BC4068104445F8040C51F832205A
:103C900045F8082C5868421C03EBC2029142ECD153
:103CA00055F8042C01321044586055F8082C1A605D
:103CB0003046BDE87040FDF72BBC00BF30AB0008BC
:103CC0002DE9F04F85B0002A00F08B80984604461D
:103CD0008B461746202383F31188FDF7C1FA4FF076
:103CE0008043A06A5A6A03930025424408F1FF33D7
:103CF000404E02920193A94600284FD0E36AA7EBF9
:103D0000050A1B1A9A4528BF9A46BAF1400F23D9D3
:103D10000BF14003DBF800E0DBF80410DBF80820CF
:103D2000DBF80CC0C0F80CC00BF1100B9B45C0F8C1
:103D300000E04160826000F11000EBD1A36AE26A0A
:103D400040339A4205F14005A36211D8E16920464B
:103D50000439FFF72DFC0BE052465946FCF7B4FA44
:103D6000A36AE26A53449A425544D344A362EDD90C
:103D7000FDF74EFA3368B34204D0B2699B6892688B
:103D80009A422BD389F31188BD4223D2202383F397
:103D90001188FDF765FAA06A0028AFD1019B0333B3
:103DA00022D8039B596A029B591A884505D320469D
:103DB000FFF746FC08B9A06AA0E7FDF729FA3368C7
:103DC000B34204D0B2699B6892689A4206D300233A
:103DD00083F31188284605B0BDE8F08F0648FCF74C
:103DE0001FFD0648FCF71CFD41462046FFF728FC56
:103DF000E0E700BF6C1E0020F4AA0008FCAB00083E
:103E00004430FFF75DBF00BF00000000000000006D
:103E100044304FF0FF33FFF753BF00BF00000000F6
:103E200070B5202382B004460D46164683F31188F0
:103E3000FDF716FAA36AFBB11D70A36AE26A0133AB
:103E40009342A36212D2FDF7E3F9174B1A689A4224
:103E500004D0996993688A689A4204D3002080F359
:103E6000118802B070BD1148FCF7DAFCE169204608
:103E70000439FFF79DFBE6E731462046FFF7E0FBFC
:103E800008B9A36AD8E70190FDF7C2F9064B01987B
:103E90001A689A4204D0996993688A689A42E2D370
:103EA000002383F31188DCE76C1E0020F4AA0008CD
:103EB0004430FFF7B5BF00BF000000000000000065
:103EC00044304FF0FF32FFF7ABBF00BF00000000EF
:103ED0002DE9F04F85B0002A00F08B80994604460A
:103EE0000F469046202383F31188FDF7B9F94FF070
:103EF0008043A16A5A6A039300254A4409F1FF33BB
:103F0000404E02920193AA4600294FD0E36AA8EBE3
:103F1000050B5B1A9B4528BF9B46BBF1400F23D97D
:103F200001F140023B46D1F800C0D1F804E08868B6
:103F3000D1F80CB0C3F80CB010319142C3F800C0F6
:103F4000C3F804E0986003F11003ECD1A36AE26ABD
:103F500040339A4207F1400705F14005A3620FD8AC
:103F60002046FFF74DFB0BE05A463846FCF7ACF90C
:103F7000A36AE26A5B449A425D445F44A362EFD95C
:103F8000FDF746F93368B34204D0B2699B68926882
:103F90009A422BD38AF31188454523D2202383F3F9
:103FA0001188FDF75DF9A16A0029AFD1019B0333A8
:103FB00022D8039B596A029B591A894505D320468A
:103FC000FFF766FB08B9A16AA0E7FDF721F933689E
:103FD000B34204D0B2699B6892689A4206D3002328
:103FE00083F31188284605B0BDE8F08F0648FCF73A
:103FF00017FC0648FCF714FC49462046FFF748FB2F
:10400000E0E700BF6C1E0020F4AA000890AB000897
:104010000C30FFF75DBF00BF000000000000000093
:104020000C304FF0FF33FFF753BF00BF000000001C
:1040300030B5202383B004460D4683F31188FDF785
:104040000FF9A36A53B313F8015BE26AA3629342C8
:1040500020D2FDF7DDF8154B1A689A4204D0996911
:1040600093688A689A4212D32846002383F3118802
:1040700003B030BD0190FDF7CBF80C4B01981A68E6
:104080009A42F2D0996993688A689A42EDD20848B8
:10409000FCF7C6FB2046FFF7B3FADAE729462046CD
:1040A000FFF7F6FA0028E5D1A36ACCE76C1E0020E2
:1040B000F4AA00080000000000000000000000005A
:1040C0000C30FFF7B5BF00BF00000000000000008B
:1040D0000C304FF0FF31FFF7ABBF00BF0000000016
:1040E00010B52023044683F31188FDF7B9F8204664
:1040F000FFF736FD0446FDF78BF8084B1A689A4225
:1041000004D0996993688A689A4204D3002383F3A0
:104110001188204610BD0248FCF782FB6C1E00206F
:104120002CAC0008000000000000000000000000AF
:10413000F8B505460C46202383F31188FDF790F867
:10414000FCF7BEFB1CB3611E14EA01071FD1134E1E
:10415000134A3068136801382044644220400D44FB
:104160002C401B1A9C4202D8044434600746FDF7D9
:104170004FF80C4B1A689A4204D0996993688A6880
:104180009A4207D3002383F311883846F8BD0648C6
:10419000FCF746FB0548FCF743FB00BF541C00201E
:1041A000501C00206C1E002000AB0008E8AA00088C
:1041B0000E4B0F4A9B69DFF840800E4D4FF480563E
:1041C00080B59A61374698F800206F8340F6C41393
:1041D00041F28834042A08BF1C462046FDF720FB24
:1041E00020462E83FDF71CFBEDE700BF6C1E002070
:1041F0000CAC0008000C0240D817002000000000A2
:10420000014900F0FDBF00BFACAC00080000000099
:10421000F8B5134C0746FCF753FB237DD3B9FCF7E5
:104220004FFB26686568FCF74BFB2369AA1BC3EBB1
:10423000A203002B11DDA2680A48131DA3601760BA
:104240009D42236998BFA6600133236105F088FD74
:104250000020F8BD6FF00100F8BD4FF0FF30F8BD51
:10426000600C0020800C0020000000000000000016
:10427000F8B5134C0746FCF723FB237DD3B9FCF7B5
:104280001FFB94E86000FCF71BFB2369721BC3EB68
:10429000A203002B11DDE3680A48043B9D4288BF5E
:1042A000331FE3601F6023690133236105F058FD6C
:1042B0000020F8BD6FF00100F8BD4FF0FF30F8BDF1
:1042C000600C0020800C00200000000000000000B6
:1042D00038B50546FCF7F4FACDB1114C237DCBB9C6
:1042E000FCF7EEFA2369002B17DDE36862681968B2
:1042F0000C4804339342E360296024BF2368E360E1
:104300002369013B236105F02BFD002038BD0648E1
:10431000FCF786FA6FF0010038BD4FF0FF3038BD72
:10432000600C0020780C00205CAC0008000000004D
:104330004FF08043091A5B6A1B1A8B4208D3054968
:10434000054A064B06480860012010701870704737
:10435000002070475C1C0020611C0020601C0020B5
:1043600080AC000800000000000000000000000019
:104370002DE9F84380460F46202383F31188234C10
:10438000FCF76EFF04F11806FCF762FA12E0FCF786
:1043900097FA94E82002FCF793FA2369A9EB050247
:1043A000C3EBA203002B1EDC39463046FCF720FE8F
:1043B000054620B9237D002BE9D06FF00105FCF7FD
:1043C00027FF134B1A689A4204D0996993688A6848
:1043D0009A4205D3002383F311882846BDE8F88369
:1043E0000C48FCF71DFAE3680B48043B9D4288BF6C
:1043F000A9F10403E360C3F800802369013323615A
:10440000002505F0ADFCFCF70BFBD8E7600C0020A5
:104410006C1E002020AC0008800C00200000000072
:1044200008B5202383F31188FCF71AFF05F078FD07
:10443000FCF7F6FAFCF7ECFE074B1A689A4204D038
:10444000996993688A689A4203D3002383F3118899
:1044500008BD0248FCF7E4F96C1E002020AC0008FF
:104460002DE9F84380460F46202383F31188244C1E
:10447000FCF7F6FE04F11806FCF7EAF913E0FCF786
:104480001FFAD4F800906568FCF71AFA2369A5EBC7
:104490000902C3EBA203002B1EDC39463046FCF7B1
:1044A000A7FD054620B9237D002BE8D06FF001055C
:1044B000FCF7AEFE134B1A689A4204D099699368D0
:1044C0008A689A4205D3002383F311882846BDE801
:1044D000F8830D48FCF7A4F9A2680C48131DA360EB
:1044E000C2F800809D42236998BFC4F80890013348
:1044F0002361002505F034FCFCF792FAD8E700BFF1
:10450000600C00206C1E002020AC0008800C0020F5
:104510002DE9F041202380460E4683F31188FCF7F5
:104520009FFEFCF795F9B8F1000F3CD01F4C04F149
:1045300020070AE0FCF7C4F92369002B1EDC314692
:104540003846FCF755FD054620B9237D002BF1D0F8
:104550006FF00105FCF75CFE154B1A689A4204D017
:10456000996993688A689A4205D3002383F3118876
:104570002846BDE8F0810F48FCF752F9E36862680D
:1045800019680D4804339342E360C8F8001024BF53
:104590002368E3602369013B2361002505F0E0FB0C
:1045A000FCF73EFAD6E70548FCF73AF9600C002024
:1045B0006C1E002020AC0008780C002050AC0008D5
:1045C00010B52023044683F31188FCF749FE2146E9
:1045D0000E48FCF7DDFCB0B90D48FFF7C1FA044600
:1045E000FCF716FE0B4B1A689A4204D0996993683F
:1045F0008A689A4204D3002383F31188204610BDB1
:104600000548FCF70DF90024EAE700BF0808002080
:10461000140800206C1E00202CAC000800000000D4
:10462000A74BA84C1A694FF0FF3100222DE98048B2
:1046300019611A61586959615A61186A60F08050AD
:1046400018621A62586A59625A62196C41F08051B4
:104650001964216841F480712160196F01F440717F
:10466000B1F5007F8BB003D04FF4803119671A6722
:10467000944E93487368944A944DDFF8C4E2944C86
:104680009449954F23F400737360036B40F2FF1C51
:1046900043EA0C030363066D46EA0C060023066535
:1046A0006FF4A84653604FF6FF709660DFF894C22F
:1046B0008A4EC2F80CE05061DFF88CE2C2F820C0EC
:1046C00056624FF41076C2F800E06E604FF0FF3291
:1046D000DFF878E2AA604FF08066C5F80CE0686108
:1046E0004FF0400E2E627E4EC5F824E02E6005F19C
:1046F000A25505F5443505F5AA756360A260E5602D
:104700004FF0C04560612562764D6562764D25604B
:10471000764C4B608A60CC6040F6FF74744E4C61FE
:10472000744C754D0B624B620C607B6001F58051DF
:10473000BA60724CFB6078613B627B62C7F800E054
:104740006F4F7360B260F3607061336273623360A5
:1047500001266B60AA60EB6068612B626B622B6064
:104760004B608A60CB6048610B624B620B60636098
:104770001946A260E36007F124026061236207F139
:1047800038007B60636223603E7042F8041B824203
:104790001161FAD15B4E5C4A3A674FF0A040398113
:1047A0007981F967C7F88010334606F5A478F86672
:1047B000552203F8012B4345FBD154480123002225
:1047C0000370426000F1240300F1380143F8042B28
:1047D0008B421A61FAD14E4B4E4D4F4C02814281B1
:1047E000C267C0F8802003F5A471C566046755222E
:1047F00003F8012B8B42FBD13149484D0B6C4848E3
:104800006D6043F001030B6481682D614FF08043BC
:1048100041F0010181604FF0FF3142F2CF00986218
:10482000D962696205F14001E96300243D4A6D6186
:1048300001210F2028879C61AC605C63AC62DC6066
:104840005C6059611960802382F81C334FF08051FD
:104850006B8705F11C03C2F88011EB6111602B62BC
:104860002D60013405EB0413802C93F830206FF396
:10487000020283F83020F4D14FF000094FF0FF31ED
:104880000022002304A8CDE908230491C5F8309044
:10489000C5F83490C5F88498CDF81490CDF81890E8
:1048A000CDF81C9005F03CFA04A8FBF721FF1E4B45
:1048B0001E491F4A19601F491F48204B136047E0DB
:1048C0000038024000700040000002400004024036
:1048D00000080240000C02400010024000AA0A003A
:1048E0008020080000060600018020025550550077
:1048F0000014024000010055001802400020024050
:10490000D817002060180020D0AC0008A81900209B
:10491000301A002000000440DCAC00086C1E0020AF
:10492000002004E000E100E0541C002040270020AB
:10493000F826002000ED00E0501C00203141000866
:10494000540001400000565500AAA02A15455155B3
:10495000DFF8DCE2CB68C0F800E04FF6FF0C9D48C2
:10496000D5F814E0C5F8484803EA0C03184302F1EF
:10497000100313615361069BC5F88438964BC5F844
:104980007C48C5F858380124944B85F8624885F86E
:104990006198C5F87498C2F81890C5F854E8C5F83D
:1049A0007898C5F85058CEF81030DFF888E2C86023
:1049B000DEF80C00C2F8089040F08070CEF80C00D1
:1049C0008748DFF874E2C2F80C906B6103F12802AB
:1049D000AB6185F860482C33C5F86828C5F85CE8F9
:1049E000C5F86C38C5F870380368202243F001031D
:1049F00010240360CC7781F82220FDF791F889F329
:104A0000118862B67748FDF713F810B17648FBF7C6
:104A100007FF744B552103F1D80203F8011B9342A1
:104A2000FBD1202383F31188FCF71AFC6F48FBF7B6
:104A300057FF0021FCF78CF9FCF7EAFB2B68AB422F
:104A400004D0AA699B6892689A4246D3002383F3F4
:104A50001188674C674AA3612146636341F8042BC0
:104A6000A36304F28C42E3662367634B6348E26509
:104A7000636704F17C0204F521734FF00209E063DF
:104A8000616004F10C0004F144012262E2612263DE
:104A900063620122A3656365A3664FF48273A36218
:104AA00023662464A467E06020616164A1642272CB
:104AB000227584F84C20C4F82C90C4F85090C4F8A7
:104AC0006490202383F31188FCF7CAFB237A013B0F
:104AD000012B05D94A48FBF7A3FE4A48FBF7A0FE85
:104AE000494BC4F88C347C62BC63BC6284F8089087
:104AF000FCF78EFB2B68AB4204D0AA699B689268D6
:104B00009A4263D34FF0000A8AF31188FA6E936BCE
:104B100023F40023936343F69820FCF781FE2020C2
:104B200080F311880390FCF79BFB97F800B0039883
:104B30000BF1FF33012B02D93448FBF771FE344BE4
:104B4000C7F80CA0BBF1010FC7F810A0C7F814A05C
:104B5000C7F818A0C7F81CA0C7F820A07B606DD0CC
:104B600002233B70FCF754FB2B68AB4205D0AA69CB
:104B70009B6892689A42C0F0D080002383F311882A
:104B8000FD6E244EA96B244A2448366041F400216E
:104B9000A963802105F0DCF9214F224E224D03E06C
:104BA00042F21070FCF73CFED4F88C341B681B7882
:104BB000042BF5D181232A4640F6C8018DE8C000B8
:104BC0000020FCF75DFBFCF763FFE9E71748FBF704
:104BD00027FE00BF0003FA0594AC0008AC260020B5
:104BE000001000E0781B002044AC0008E8AC00088E
:104BF000441300204CAD0008713A000871390008D8
:104C000068AC0008A8C4000814AD000874AC000823
:104C10003CAD0008581C0020B1410008681C002071
:104C20001CAD0008D15700080CAD000814AC0008FA
:104C300000000220F0ED00E000040020444B454A53
:104C4000596BD7F86C9041F080015963596941F074
:104C500080015961C3F814A0E02382F8433308238C
:104C6000C2F8883193603C4A3C4BC9F80C20C9F823
:104C70000038C0224FF45023C7F878A0C9F800AE1E
:104C8000C9F80020C9F83830FBF7BAFDC9F810B0F0
:104C9000D9F8103013F0010AFAD11220FBF7B0FD59
:104CA000D9F81030002BFBDA3B6FF86ED3F808E030
:104CB0000023C9F808304FF0FF3100EB4A120AF127
:104CC000010AF245C2F80039C2F81039C2F80819D1
:104CD000C2F8003BC2F8103BC2F8081BEDD97A6855
:104CE000D2684FF00111C0F81C18C9F81038C9F883
:104CF0001438C9F81C383AB3194BC9F81830D7F82A
:104D000080304FF0FF32C9F814204BB1D9F8083089
:104D100043F00103C9F8083022E71248FBF780FD91
:104D20001149124B0491022204A807920893059698
:104D3000CDF818800997FBF7D3FDFBF789FEC7F87C
:104D40008000FBF76DFEE1E7094BC9F81830D6E7A4
:104D50000038024000E100E040140040030020025F
:104D6000083C30C038AC000800AD0008619A00086B
:104D7000003C30C000000000000000000000000007
:104D8000022906D0032906D00129064818BF0020B1
:104D9000704705487047032A9ABF044800EBC200D9
:104DA0000020704770B3000824B30008F8B300086F
:104DB00010B5202382B083F31188234CFCF7D8F977
:104DC000D4F88C2413681978042906D0FCF7B8F9B4
:104DD000002383F3118802B010BD217A0229F5D196
:104DE00011791A8901238B401342EFD1FBF768FD3B
:104DF000636DA26D9342E9D1226D002AE6D0E26E86
:104E0000002AE3D0043AD21AE0D01A60206EE16D95
:104E1000226D03448B42636524BFA36E6365013A30
:104E2000002301A909482265E366FEF7A9FD0246B1
:104E300038B1D4F88C04019B0179006801F0A0FF1F
:104E4000C4E70348FBF7ECFC441300208813002060
:104E500090AD00080000000000000000000000000D
:104E600038B5052916D8DFE801F050151650500363
:104E7000202383F31188FCF77BF901213148FBF7EC
:104E800037FE314B00241C7583F84C40FCF758F971
:104E900084F3118838BD0546202383F31188FCF77D
:104EA00067F9294C294A28460121FEF719FC0221FD
:104EB000274A2846FEF714FC0025FBF701FD236B6B
:104EC000236204F10C00E361A5616563A56304F04E
:104ED0005FFF2575FBF7F4FCA36E626E2265A36588
:104EE000636504F14400E566256704F051FF012184
:104EF000201D84F84C50FBF7FBFD2046FEF7C8FC54
:104F0000FCF71EF985F3118838BD202383F311883F
:104F10000D4CFCF72DF90221201DFBF7E9FD0125C1
:104F200004F10C00257504F033FF04F1440084F80B
:104F30004C5004F02DFFFCF703F9002383F3118894
:104F400038BD00BF481300204413002090B0000873
:104F5000B4B00008000000000000000000000000E5
:104F600070B50E46F0B1044630601149204605F098
:104F7000EFFA215C222904EB00050DD00C492846EC
:104F800005F0C4FA306018B1421C0023326003708F
:104F90002B7853B1284670BD0135284605F042FAFA
:104FA0003060F0E70C68002CDFD10025284670BD8A
:104FB000D8B0000800000000000000000000000061
:104FC00070B5344D344C354801232B6004F030FA71
:104FD00040F6880004F044FA204604F009FA02235F
:104FE0002F482B6004F024FA442004F039FA2046BC
:104FF00004F0FEF903232B482B6004F019FA142067
:1050000004F02EFA204604F0F3F9042626482E6018
:1050100004F00EFA0C2004F023FA204604F0E8F91C
:10502000052322482B6004F003FA102004F018FA3C
:10503000204604F0DDF906231D482B6004F0F8F942
:10504000082004F00DFA204604F0D2F9072319488D
:105050002B6004F0EDF9304604F002FA204604F02B
:10506000C7F9082314482B6004F0E2F9142004F077
:10507000F7F9204604F0BCF9092310482B6004F02E
:10508000D7F9282004F0ECF92046BDE8704004F080
:10509000AFB900BFFC1D00209CB200088CB2000814
:1050A000A4B20008B4B20008C4B20008D4B2000828
:1050B000E4B20008F4B2000804B3000814B3000816
:1050C0002DE9F843DFF880901C4C0123C9F800302B
:1050D00004F07EF8002580464FF0804742F20F76BC
:1050E0002046FCF775FA2046FCF712FA2046FCF73A
:1050F0006FFA2046FCF70CFA2046FCF769FA2046C6
:10510000FCF706FA2046FCF763FA2046FCF700FAA3
:105110007B6AA3EB0803B34205F10105E0D9022342
:105120000748C9F8003004F083F9A80004F098F9A2
:105130000448BDE8F84304F05BB900BFE01D00205F
:10514000B8AA00087CB20008FC1D00200000000086
:10515000024B00221B605B609A607047E01D0020DC
:10516000024B01221B605B609A607047F01D0020BB
:105170002DE9F843DFF880901C4C0123C9F800307A
:1051800004F026F8002580464FF0804742F20F7663
:105190002046FCF775FA2046FCF73AFA2046FCF761
:1051A0006FFA2046FCF734FA2046FCF769FA2046ED
:1051B000FCF72EFA2046FCF763FA2046FCF728FAA3
:1051C0007B6AA3EB0803B34205F10105E0D9022392
:1051D0000748C9F8003004F02BF9A80004F040F9A2
:1051E0000448BDE8F84304F003B900BFF01D0020F7
:1051F000B8AA00086CB20008FC1D002000000000E6
:105200000EB42DE9F04F86B00FAF002357F8046BB2
:10521000029705469A463178731C61B1252910D052
:105220002A681E4692682846904731780AF1010A9A
:10523000731C0029F2D1504606B0BDE8F04F03B010
:10524000704772782D2A03BFB278B31C4FF0010C5F
:105250004FF0000C302A03BF5A7801334FF0300969
:105260004FF02009591C002405E03B78043711F861
:10527000012B03EB4004A2F13003DBB2092B0E46F5
:1052800004EB8400F3D92A2AEFD02E2A4FF0000134
:1052900043D002F0DF034C2B4ED0A2F1440034285F
:1052A00000F24E81DFE810F0FB004C014C014C0194
:1052B0004C01FB004C014C014C014C014C01F50030
:1052C0004C014C014C014C014C0188004C014C013B
:1052D000F8004C014C014C014C014C014C014C01BB
:1052E0004C014C014C014001FB004C014C014C01B4
:1052F0004C01FB004C014C014C014C014C01F500F0
:105300004C014C014C0126014C0188004C014C0120
:10531000F8003B78043703EB400116F8012BA2F1AB
:105320003003DBB2092B01EB8100F4D92A2AF0D03B
:1053300002F0DF034C2BB0D133780BB101361A46A3
:10534000A2F14403342B00F2FB80DFE813F0A80045
:10535000F900F900F900F900A800F900F900F900D6
:10536000F900F900A200F900F900F900F900F900CC
:105370003500F900F900A500F900F900F900F9007D
:10538000F900F900F900F900F900F900ED00A800B2
:10539000F900F900F900F900A800F900F900F90096
:1053A000F900F900A200F900F900F900D300F900B2
:1053B0003500F900F900A5004FF00A083A680DF130
:1053C0001701043700E00146B2FBF8FE08FB1E227D
:1053D00002F13003392BC8BF02F13703DBB272464A
:1053E00001F8013C481E002AEDD10DF117020DF124
:1053F0000C08121AC646104401E011F8013B0EF8E1
:10540000013B8842F9D1531E0193A41A3BD4BCF14D
:10541000000F40F09E80C4F1000B002C00F098803B
:1054200098F800102D2900F0A3802B6849469B684E
:10543000284698471BF1010BF7D1019B002BA24492
:10544000A8BF5C46FFF6E7AEDDF804B02B6818F89D
:10545000011B9B680BF1FF3B28469847BBF1FF3FC0
:10546000F4D1019B0AF1010A9A44002C3FF4D3AE17
:10547000A0462B6849469B6828469847B8F1010822
:10548000F7D1A244C7E6019B002BA8BF0024DBDABA
:10549000C1E64FF0080891E74FF010088EE7396831
:1054A000002907F1040773DB0DF10C08424602F1F5
:1054B0000B03019318463E4BA3FB01E3DB0803EB10
:1054C000830B9E46A1EB4B033033DBB2714600F8F1
:1054D000013D0029EFD10199091A114401E010F8AA
:1054E000013F02F8013B8A42F9D1A2EB0802531EA8
:1054F00001938AE7D7F800800437B8F1000F50D045
:1055000098F8003051B36BB30139424601E00139DC
:1055100003D412F8013F002BF9D1A2EB0802531E6D
:1055200001934FF0200970E70DF118083B6808F867
:105530000C3D00230437019301224FF0200964E75A
:105540000DF11808002308F80C2D019301225CE7E7
:105550005C46019B002BBFF677AF86E747F6FE71EE
:10556000002BD2D14FF0FF3301934FF020094EE7CB
:10557000B9F1300F7FF459AF2A68284692689047F6
:10558000019B013B08F101080AF1010A01934CE774
:105590002D2349428DF80C300DF10D020DF10C0850
:1055A00085E7DFF810800029AED147F6FF71ABE741
:1055B000CDCCCCCC9CAD0008000000000000000069
:1055C000002918DC70B504460C4E0D4D02E033681E
:1055D0001B689847236800215B6920469847013083
:1055E0004FF4806229460548F1D020460549BDE8C0
:1055F0007040FFF705BE0449FFF702BE44130020C8
:105600002008002070B0000880B0000800000000F2
:10561000002903DD0F4A1049FFF7F2BD10B50F4B0B
:105620000F499B690B4A9B6882B004468DE81200C3
:1056300000204FF4E471FBF723FE20B102B0BDE877
:105640001040FCF725BA0749204602B0BDE81040DB
:10565000FFF7D6BD8CBE0008E4AF00086C1E00202A
:10566000C1940008F0AF0008000000000000000036
:1056700030B5002983B005DD134A1449FFF7C0FD9A
:1056800003B030BD044601AA69460020FEF780FA47
:105690000F4A104B12681B680F49D21A0546204664
:1056A000FFF7AEFD2A460D492046FFF7A9FD009AF7
:1056B0000B492046FFF7A4FD2046019A0949FFF750
:1056C0009FFD03B030BD00BF58AF0008E4AF000835
:1056D000501C0020541C00205CAF00087CAF000868
:1056E00094AF0008B4AF0008000000000000000004
:1056F000012903D0034A0449FFF782BD1268034918
:10570000FFF77EBDA4AD0008E4AF0008B4AD00080B
:10571000002903DD194A1A49FFF772BD10B5194A6D
:10572000194982B00446FFF76BFD184A1849204614
:10573000FFF766FD174A18492046FFF761FD174A33
:1057400017492046FFF75CFD164A17492046FFF728
:1057500057FD164A16492046FFF752FD154A1649CD
:105760002046FFF74DFD154B00932046144B154A7C
:105770001549FFF745FD02B010BD00BFBCAD0008E4
:10578000E4AF0008C4AD0008CCAD0008E0AD0008EF
:1057900028AE00083CAE000848AE00085CAE000829
:1057A00068AE00087CAE000894AE0008A8AE000801
:1057B000D4AE0008E8AE000810AF00084CAF0008F7
:1057C00024AF000828AF000834AF00080000000034
:1057D0002DE9F04F076875494368DFF808929BB0E0
:1057E0008046384601938A46FFF70AFD38467049DD
:1057F000FFF706FD0AAE49463846FFF701FDD8F827
:1058000000403546236801225B680DF10F012046F8
:105810009847002861D09DF80F10042959D0082915
:1058200012D07F2910D00D290DF1670320D01F2938
:10583000E8D99D42E6D2236820469B6898479DF8A8
:105840000F302B700135DDE7B5424FF008012046DF
:10585000D8D023689B689847236820219B682046FE
:105860009847236808219B682046013D9847C9E76F
:10587000204651460024FFF7C3FC04A92C70304693
:10588000FFF76EFB04A98346002005ADFFF768FB18
:1058900050B1042C38D045F8040B04A90020013481
:1058A000FFF75EFB0028F4D11AAB03EB840343F847
:1058B000540CBBF1000F9ED03E495846FAF7A4FDA8
:1058C00048BB002C38D03B4A3B493846FFF798FC90
:1058D00091E720463949FFF793FC34493846FFF7F2
:1058E0008FFC38463649FFF78BFC202383F3118861
:1058F000FBF7B6FC00213348FBF7FAF80020FBF772
:10590000FFF91BB0BDE8F08F2F493846FFF778FC50
:10591000002309936FE72D4D2D4802E055F8080F3D
:1059200060B35946FAF770FD0028F7D16B6805AAF5
:105930002146384698475EE72649244C264D38468E
:10594000FFF75EFC224A29463846FFF759FC54F817
:10595000082F002AF7D1019B5BB1019C226842B15C
:105960001D4D29463846FFF74BFC54F8082F002AF6
:10597000F7D151463846FFF743FC3CE7019D5DB146
:10598000286818B908E055F8080F28B15946FAF701
:105990003BFD0028F7D1C9E75A4610493846FFF7C2
:1059A0002FFC0F493846FFF72BFC24E78CB000088A
:1059B000E4B000081CB10008E4AF000800B1000822
:1059C00044B10008581C002004B100084CB1000884
:1059D000DCB0000824B1000834B1000838B1000878
:1059E0003CB10008F8B00008000000000000000012
:1059F000002903DD094A0A49FFF702BC08B5202344
:105A000083F31188FBF72CFC06480021FBF770F8A4
:105A10000020BDE80840FBF773B900BFDCB0000808
:105A2000E4AF0008581C0020000000000000000047
:105A3000002903DD264A2749FFF7E2BB2DE9F0479D
:105A4000254986B00646FFF7DBFB202383F3118848
:105A5000224DFBF705FC2C6994F82230013384F8C1
:105A60002230FBF7D5FB2B68AB4204D0AA699B68B8
:105A700092689A4228D3002383F31188DFF8649058
:105A8000DFF86480DFF864A094F8225094F82000D6
:105A9000A169A76859F82000E269E368039000292A
:105AA00008BF4146013D049100945146029701957B
:105AB0003046FFF7A5FB2046FBF782FF044600288F
:105AC000E2D106B0BDE8F0870548FAF7A9FE00BFAD
:105AD00000B00008E4AF000808B000086C1E002009
