:020000040800F2
:1000000000040020C1010008B11B0008B11B00085A
:10001000B11B0008B11B0008B11B0008B11B000890
:10002000B11B0008B11B0008B11B0008A14100086A
:10003000B11B0008B11B0008B11B0008B11B000870
:10004000B11B0008B11B0008B11B0008B11B000860
:10005000B11B0008B11B0008B11B0008B11B000850
:10006000B11B0008B11B0008B11B0008B11B000840
:10007000B11B0008B11B0008B11B0008B11B000830
:10008000B11B0008B11B0008B11B0008B11B000820
:10009000B11B0008B11B0008B11B0008B11B000810
:1000A000B11B0008B11B0008B11B0008B11B000800
:1000B000D1920008B11B0008B11B0008B11B000859
:1000C000B11B0008B11B0008B11B0008B11B0008E0
:1000D000B11B0008B11B0008B11B0008B11B0008D0
:1000E000B11B0008B11B0008B11B0008B11B0008C0
:1000F000B11B0008B11B0008B11B0008B11B0008B0
:10010000B11B0008B11B0008B11B0008B11B00089F
:10011000B11B0008B11B0008B11B0008B11B00088F
:10012000B11B0008B11B0008B11B0008B11B00087F
:10013000B11B0008B11B0008B11B0008B11B00086F
:10014000B11B0008B11B0008B11B0008E1930008B7
:10015000B11B0008B11B0008B11B0008B11B00084F
:10016000B11B0008B11B0008B11B0008B11B00083F
:10017000B11B0008B1930008B11B0008B11B0008B7
:10018000B11B0008B11B0008B11B0008B11B00081F
:10019000B11B0008B11B0008B11B0008B11B00080F
:1001A000B11B0008B11B0008B11B0008B11B0008FF
:1001B000B11B0008B11B0008B11B0008B11B0008EF
:1001C00072B6264880F3098825484EF60851CEF2CB
:1001D00000010860022080F31488BFF36F8F01F0E4
:1001E0002FFD09F00DFB4FF055301E491E4A91427C
:1001F0003CBF41F8040BFAE71C49184A91423CBF46
:1002000041F8040BFAE71A491A4A1B4B9A423EBFBF
:1002100051F8040B42F8040BF8E700201749184A7C
:1002200091423CBF41F8040BFAE701F0C9FC01F030
:10023000FFFC144C144DAC4203DA54F8041B8847FD
:10024000F9E701F05DFF114C114DAC4203DA54F8AF
:10025000041B8847F9E701F0E3BC00000008002018
:10026000000000080000002000040020000400201E
:10027000B4C5000800080020880C0020880C00206D
:1002800038270020C0010008C0010008C001000894
:10029000C00100082DE9F04FC1F80CD0C3689D469D
:1002A000BDE8F08F00F0B4FF002383F311882846E7
:1002B000A047002001F00CFB00F0D2FF00F070FB23
:1002C00000F0A6FF00DFFEE7844641EA000313F0DA
:1002D00003036DD1403A41D351F8043B40F8043B4D
:1002E00051F8043B40F8043B51F8043B40F8043B10
:1002F00051F8043B40F8043B51F8043B40F8043B00
:1003000051F8043B40F8043B51F8043B40F8043BEF
:1003100051F8043B40F8043B51F8043B40F8043BDF
:1003200051F8043B40F8043B51F8043B40F8043BCF
:1003300051F8043B40F8043B51F8043B40F8043BBF
:1003400051F8043B40F8043B51F8043B40F8043BAF
:1003500051F8043B40F8043B403ABDD2303211D34F
:1003600051F8043B40F8043B51F8043B40F8043B8F
:1003700051F8043B40F8043B51F8043B40F8043B7F
:10038000103AEDD20C3205D351F8043B40F8043B4F
:10039000043AF9D2043208D0D2071CBF11F8013B4D
:1003A00000F8013B01D30B8803806046704700BF13
:1003B000082A13D38B078DD010F003038AD0C3F122
:1003C0000403D21ADB071CBF11F8013B00F8013B04
:1003D00080D331F8023B20F8023B7BE7043AD9D3C3
:1003E000013A11F8013B00F8013BF9D20B78037098
:1003F0004B7843708B788370604670470000000034
:10040000A2EB0300704700BF02780B78012A28BFD7
:100410009A42F5D16DE9044540EA0104CDE902674D
:100420006FF0000C4FEA447212B380EA010414F03A
:10043000070F6AD100F0070420F0070004F003055D
:1004400021F007014FEAC505F0E8042314F0040F7A
:10045000F1E804670CFA05F462EA040266EA0406AD
:100460000AD063EA0403624667EA0407664603E0CB
:10047000F0E80423F1E8046782FA4CF582EA060406
:10048000A4FA8CF46CBB83FA4CF583EA0705A5FA51
:100490008CF595B950E9022351E9026782FA4CF5CF
:1004A00082EA0604A4FA8CF483FA4CF583EA070581
:1004B000A5FA8CF52543DBD09CB92DBAB5FA85F4A5
:1004C00024F0070427FA04F1DDE9026723FA04F3B4
:1004D00003F0FF0001F0FF01FDE80445A0EB01007F
:1004E000704724BAB4FA84F424F0070426FA04F11D
:1004F000DDE9026722FA04F202F0FF0001F0FF01D9
:10050000FDE80445A0EB0100704714F0030F3CD157
:1005100010F0030428D150F8082B51F8083B82FA58
:100520004CF582EA0305A5FA8CF55DB950F8042C68
:1005300051F8043C82FA4CF582EA0305A5FA8CF5E1
:10054000002DE8D02DBAB5FA85F424F0070423FA7B
:1005500004F122FA04F202F0FF0001F0FF01FDE8CD
:100560000445A0EB010070474FEAC40420F00300EB
:1005700050F8082B21F0030151F8083B0CFA04F461
:1005800062EA040263EA0403C9E710F003041AD024
:10059000A1EB040120F00300E40750F8042B06D07F
:1005A0000FD28B785FFAA2F4E41A06D12BB1CB7884
:1005B0005FFAB2F4E41A00D11BB920465DF8104B83
:1005C000704701F1040150F8042BCC0721F003011E
:1005D00051F8043B48D824D222F07F4482FA4CF5EB
:1005E00094EA1325A5FA8CF50AD165B951F8043BB4
:1005F00084EA0204B4EB036F0ED150F8042BEBE74E
:100600004FEA132355E035F07F454DD10878FDE8DA
:100610000445C0F1000070474FEA126203F0FF0387
:1006200047E002EA1C4482FA4CF594EA1345A5FA25
:100630008CF50AD165B951F8043B84EA0204B4EBA5
:10064000034F0CD150F8042BEBE74FEA134330E093
:1006500015EA1C4528D10B884FEA124229E04FEADF
:10066000124203EA1C4324E002F0FF0482FA4CF534
:1006700094EA1365A5FA8CF50AD165B951F8043BE3
:1006800084EA0204B4EB032F09D150F8042BEBE702
:100690004FEA13630DE015F0FF0F05D10B684FEA29
:1006A000122223F07F4304E04FF00000FDE80445F0
:1006B000704712BA1BBA82FA4CF482EA0304A4FA15
:1006C0008CF5B5FA85F402FA04F203FA04F34FEA62
:1006D0001260FDE80445A0EB1360704700000000C5
:1006E000FEE700BF00000000000000000000000066
:1006F0000E4B0F4A5B68C168F0B48768D2F8846813
:100700004268D0E90445DB1B9B1BE41845F100055A
:100710009342026888BF436001319342C0E90445B7
:10072000C160836038BF0360F0BC7047001000E018
:10073000681E002000000000000000000000000013
:1007400010B40B4A0B48D36B4FF080441968646AAD
:100750005C60406860F31F2143F8101B02F50461E0
:100760008B4228BF02F14003D36310BC704700BF27
:10077000681E0020001000E00000000000000000E3
:100780000B4A138F10B513F002040FD1202383F30B
:100790001188D26B13789060032161F3020364F334
:1007A000C7031370FFF7CCFF84F3118810BD00BF9F
:1007B000681E002000000000000000000000000093
:1007C0000B4A138F10B513F002040FD1202383F3CB
:1007D0001188D26B13789060022161F3020364F3F5
:1007E000C7031370FFF7ACFF84F3118810BD00BF7F
:1007F000681E002000000000000000000000000053
:10080000034A516853685B1A9842FBD8704700BF8F
:10081000001000E0000000000000000000000000E8
:1008200008B5054672B6094C238F13F0040201D0B7
:10083000E562FEE7E16B0B788860042060F3020359
:1008400062F3C7030B70FFF77BFFF1E7681E002020
:1008500008B5054B1A6B1AB95B6B002B00DD08BDA0
:100860000248FFF7DDFF00BF681E002088A70008D0
:1008700070B5104CA5690646FFF7EAFF236885F8B6
:1008800020601A68226001215460284683F82010F5
:10089000A36109F035FAEFF30983EA69243B9A4230
:1008A00005D82946A069BDE87040FFF7F3BC0248AF
:1008B000FFF7B6FF681E002090A7000800000000A8
:1008C00008B5054B1A6B002A03DB5B6B002B00DDC0
:1008D00008BD0248FFF7A4FF681E002080A700089B
:1008E000F8B50446FFF7ECFF34B161684B0703D15C
:1008F000A36813F0070502D02348FFF791FF994240
:10090000FAD25A1AC72AF7D9E068FF28F4D827691B
:10091000002FF1D01D4A43F82C1C4FF0020E012687
:100920006169246803F828EC03F8275C03F8266C57
:1009300043F8382C5669DFF858E043F86C7C43F8EC
:10094000681C43F8304CA3F14801A3F11C04A3F147
:100950006C0CA3F1200743F8400C43F80C0C43F84F
:10096000105C43F8145C43F8346C43F83CCC43F817
:100970004CEC08463161516143F8207C43F81C4C33
:1009800043F8184CF8BD00BF2CA60008681E0020D4
:10099000A5020008000000000000000000000000A8
:1009A00070B51A4E3368B5691C6834600122666000
:1009B00083F82020B361FFF783FF0DB395F8203053
:1009C000F3B10F2B1CD00023AA6885F8203000E07B
:1009D0002468A3689342FBD863686B602C60284648
:1009E0001D60656009F08CF9EFF30983EA69243B27
:1009F0009A4208D82946B069BDE87040FFF74ABC62
:100A00000348FFF70DFF0348FFF70AFF681E0020A9
:100A100018A6000890A700080000000000000000D1
:100A200008B5FFF715FFFFF74BFF064B1A689B69E8
:100A300092689B689A4200D808BDBDE80840FFF75D
:100A4000AFBF00BF681E00200000000000000000D3
:100A500010B50446FFF734FFA4B194F820308BB1F1
:100A60000F2B0FD00022A168084B84F820201B68B0
:100A70009A688A42FBD25A686260236020461460FA
:100A80005C6010BD0248FFF7CBFE00BF681E00206F
:100A9000C8A50008000000000000000000000000E1
:100AA00038B504460D46FFF70BFFBCB1616B94F8F7
:100AB000203029430A2B61630CD00B2B00D038BDAA
:100AC000636A8B43FBD1002363622046BDE8384054
:100AD000FFF7BEBF636A1942F5D138BD0148FFF781
:100AE0009FFE00BFD4A60008000000000000000028
:100AF00070B506460D46FFF7E3FE8EB13468A64298
:100B00000DD0E3682B43E36015B12269134203D093
:100B1000A1686068FFF7C4FF2468A642F1D170BDE8
:100B20000148FFF77DFE00BF60A60008000000003E
:100B30001E4B2DE9F0410646D3F81880FFF788FEDA
:100B40002EB1D8F8383013B19A68904502D01848C1
:100B5000FFF766FE9E42FAD1F468C8F83840FFF706
:100B600077FE3768BE421CD0D8F83C505CB1FFF726
:100B70006FFE23689C4203D09B689D4238BF1D4690
:100B8000E468002CF3D13B68BA6BC8F808503846CB
:100B900033605E60B760F260BE63BDE8F041FFF7AE
:100BA00057BF0023B360BDE8F08100BF681E00207E
:100BB000C4A60008000000000000000000000000C3
:100BC000374B70B505469C69FFF742FE1DB3A86818
:100BD00000285FD0A26883689A4207D990F8203035
:100BE0008260062B3DD0072B27D0DBB12B4603E0DC
:100BF0009968A268914202D31B689D42F8D15A6855
:100C000062602360062014605C606562FFF730FE5E
:100C1000AB689C4202D02348FFF702FEA36B9D42C3
:100C2000F9D170BD90E80C00012180F820101A6005
:100C300002685360FFF70CFFD8E790E80A001960DC
:100C400001684B60466A334602E099688A4202D8DE
:100C50001B689E42F9D15A68426003601060586078
:100C6000C4E790E80A00196001684B60466A3346A1
:100C700002E099688A4202D81B689E42F9D15A68FC
:100C80004260036010605860B068A2688368934255
:100C9000A4D3ABE7A36BEB60AC60A56370BD00BFF2
:100CA000681E0020E0A50008000000000000000011
:100CB00010B50446FFF704FE2CB1A3682268002B90
:100CC00004DB944204D00A48FFF7AAFD9442FAD00C
:100CD0000133002BA36000DD10BD136823600021E9
:100CE0005C6051621046BDE81040FFF7B1BE00BF26
:100CF000A4A60008000000000000000000000000A2
:100D000008B5114B9C69A36A606204F128059D42F5
:100D100007D01A68A2621846FFF79AFEA36AAB4290
:100D2000F7D194F8223043B994F821309B0704D1CD
:100D3000636922691A61226953610F20FFF798FDE8
:100D40000248FFF76DFD00BF681E0020F4A60008F2
:100D500070B5194D04460E46FFF77AFD2B68A86959
:100D6000AB4227D09A68836893421DD3A26866621B
:100D7000934214D2FFF76CFE012384F8203006461C
:100D8000AC6108F0BDFFEFF30983F269243B9A429E
:100D90000DD831462046BDE87040FFF77BBA2046AB
:100DA000BDE87040FFF754BE0448FFF739FD044822
:100DB000FFF736FD8368D9E7681E0020B4A6000857
:100DC00090A70008000000000000000000000000E4
:100DD00010B50446FFF774FD002C33D0E368002BF8
:100DE00030D01C4BDA6994420FD0616822680A60E7
:100DF00022681C3300209A425160E06004D0A16850
:100E000093680B44936010BD10BD1946226841F8E9
:100E10001C2F00208A425160E06016D09068A468C0
:100E2000996A04444FF080409460406A421A9442A8
:100E3000EAD9A31A022B2CBFC0180230BDE810401B
:100E400003F046BC0448FFF7EBFC4FF08043D8604A
:100E500010BD00BF681E002044A60008000000006E
:100E60002DE9F04106460C4617461D46FFF728FDC2
:100E70007EB377B36CB3DFF8A88035614346022CAC
:100E800053F81C5FF7604FF08042214638BF0221C3
:100E90009D42546A29D0D8F82800AB68241A6418F7
:100EA0001AD29C421CD39C4204D92D68E41AAB6828
:100EB000A342FAD36B68736035601E606E60B460E5
:100EC000AB684FF0FF321C1BAC60C8F82420BDE8B3
:100ED000F0811148FFF7A4FC2D68E41AAB68E2E743
:100EE000204403F0F5FBAB68DDE7C8F82840C8F8FC
:100EF0001C60C8F82060B160D368356013F002034D
:100F0000756006D10C44022154631361D160BDE8C1
:100F1000F0810248FFF784FCD4A5000830A7000840
:100F2000681E00200000000000000000000000001B
:100F300070B50C4686B00646FFF78AFC631C14D0D9
:100F40000E4D0F4AAB69214601A8FFF789FF3046D5
:100F5000FFF78EFCFFF7B4FC049B13B101A8FFF769
:100F600037FFAB69586A06B070BD044D3046FFF7D5
:100F70007FFCAB69586A06B070BD00BF681E0020D8
:100F8000A1110008000000000000000000000000A7
:100F900038B504460D46FFF75BFC2CB1A368226808
:100FA000002B04DB944204D00E48FFF739FC944236
:100FB000FAD05A1E002AA26001DB002038BD6DB1B4
:100FC000094B9B695C6262685A601C602946136029
:100FD00005206360BDE83840FFF7AABFA3604FF06B
:100FE000FF3038BD84A60008681E00200000000005
:100FF00061B1084B10B4024644689B69042083E841
:1010000014002360536010BCFFF792BF4FF0FF3015
:10101000704700BF681E00200000000000000000B4
:1010200010B50446FFF74CFCE20713D52B4A1168B4
:10103000914247D000230968914203F10103FAD19C
:10104000486888423CD04068904203F1FF33FAD1AF
:10105000002B35D1A30714D5204A104650F81C1F89
:10106000814235D000230968814203F10103FAD19E
:10107000126A8A4224D05268824203F1FF33FAD1C5
:10108000F3B914F004001AD0144A1369934211D032
:1010900000201B69934200F10100FAD1596999427D
:1010A0000ED04969914200F1FF30FAD1003018BFEB
:1010B000012010BD596999424FF00000F1D110BDD7
:1010C000012010BD5068904218BF0023BBD1C1E77A
:1010D000126A824218BF0023CDD1D2E7681E0020D9
:1010E00008B5202383F31188064A136B002B01DD1A
:1010F000516B11B10448FFF793FB013B136381F37C
:10110000118808BD681E002050A7000800000000DC
:1011100008B5202383F31188064A136B002B01DBEB
:10112000516B11B10448FFF77BFB0133136381F36B
:10113000118808BD681E002048A7000800000000B4
:1011400008B5064B1A6B002A05DD5A6B002A02DD32
:1011500000225A6308BD0248FFF762FB681E0020A8
:1011600078A7000800000000000000000000000058
:1011700008B5064B1A6B002A01DD5A6B12B1044800
:10118000FFF74EFB01225A6308BD00BF681E002016
:1011900060A7000800000000000000000000000040
:1011A00038B50446202383F31188FFF7E1FF94F854
:1011B0002030072B10D8DFE803F0150F0F1B0A04AF
:1011C0000F0A656AFFF77CFBAB680133AB6094E8FC
:1011D0000C001A60226853604FF0FF3363622046B0
:1011E000FFF736FCFFF7ACFF002383F3118838BD0F
:1011F000636A00221A604FF0FF3363622046FFF7F4
:1012000027FCEFE7000000000000000000000000E5
:1012100008B5054B1A6B22B9596B002901DD5A63D9
:1012200008BD0248FFF7FCFA681E002070A70008FE
:1012300008B5FFF7EDFF084B1A689A4204D0996988
:1012400093688A689A4203D3002383F3118808BD08
:101250000248FFF7E5FA00BF681E002038C5000805
:1012600008B5054B1A6B0AB95A6B12B10348FFF760
:10127000D7FA01225A6308BD681E002058A700084B
:1012800070B586B016461D460C4608F0D1FD002804
:1012900033D004440A9B0493A0420B9B0593029411
:1012A00000960190039538BF552303D200F8013B07
:1012B0008442FBD1202383F31188FFF7D1FF6846D6
:1012C000FFF70EFB012380F8213000210446FFF7D1
:1012D0003FFDFFF79DFF0A4B1A689A4204D09969B7
:1012E00093688A689A4205D3002383F311882046C5
:1012F00006B070BD0348FFF793FA0446F7E700BF56
:10130000681E002044C50008000000000000000026
:1013100038B504460D46202383F31188FFF7A0FF5C
:1013200094F820300D2B02D00D48FFF779FAFFF723
:101330008FFA29462046FFF70BFDFFF769FF094B9F
:101340001A689A4204D0996993688A689A4203D3CA
:10135000002383F3118838BD0348FFF761FA00BF0B
:1013600008A60008681E0020B0A5000800000000C4
:1013700070B5202383F31188154CFFF771FFA66920
:10138000FFF79EFA334653F82C5F9D4217D02A6828
:10139000F2620D21536085F82010FFF739FF2368B2
:1013A000A34204D0A2699B6892689A4204D30023A6
:1013B00083F31188284670BD0648FFF731FA0E20E6
:1013C000FFF756FAA669F56A06F12C03DFE700BFBE
:1013D000681E0020B0A5000800000000000000000A
:1013E000F8B5194EB46960B30F460546202383F360
:1013F0001188FFF735FF67622B6B636005F12C02E4
:1014000022601C6095F820302C630E2B15D00C2028
:10141000FFF72EFA646AFFF7FBFE3368B34204D08D
:10142000B2699B6892689A4204D3002383F31188BF
:101430002046F8BD0548FFF7F3F92846FFF708FBFB
:10144000E5E70348FFF7ECF9681E0020B0A50008A7
:10145000BCA5000800000000000000000000000023
:1014600038B50546202383F311880C4CFFF7F8FEAE
:10147000A369586B05435D63FFF7CAFE2368A34267
:1014800004D0A2699B6892689A4204D3002383F334
:101490001188284638BD0248FFF7C2F9681E0020AF
:1014A00038C5000800000000000000000000000037
:1014B00038B520B30D4611B30446202383F31188B9
:1014C000FFF7CEFE224602E09D4215D01A46136871
:1014D0009C42F9D1FFF79CFE0A4B1A689A4204D04D
:1014E000996993688A689A4203D3002383F3118829
:1014F00038BD0548FFF794F92B681360EAE7034805
:10150000FFF78EF9681E002038C50008ECA500081A
:101510002DE9F843284FBD6950B10646202383F3D7
:101520001188FFF79DFEAB6B13B19A68954202D00C
:101530002248FFF775F99E42FAD1F468AC63FFF7D1
:1015400087F9D6F800904E4532D0D5F83C805CB192
:10155000FFF77EF923689C4203D09B68984538BF0B
:101560009846E468002CF3D1D9F80030D9F8382037
:10157000C5F80880484633605E60F260C6F808909F
:10158000C9F83860FFF764FAFFF74AFAFFF740FE40
:101590003B68BB4204D0BA699B6892689A4204D304
:1015A000002383F31188BDE8F8830548FFF738F975
:1015B0000023B360EAE700BF681E002078A6000899
:1015C00020C500080000000000000000000000002E
:1015D00010B52023044683F31188FFF741FE20460F
:1015E000FFF7EEFAFFF714FE074B1A689A4204D091
:1015F000996993688A689A4203D3002383F3118818
:1016000010BD0248FFF70CF9681E002020C5000835
:1016100010B530B18368002B0446036804DB9842A0
:1016200004D01448FFF7FCF89842FAD0202383F343
:101630001188FFF715FEA3680133002BA36011DDAD
:10164000FFF7E6FD0C4B1A689A4204D0996993683B
:101650008A689A4203D3002383F3118810BD074898
:10166000FFF7DEF820680368236000215C60FFF765
:101670006FFBE5E798A60008681E002014C5000867
:1016800038B50446202383F31188FFF7E9FDFFF7FF
:10169000DFF82CB1A3682268002B04DB944204D04D
:1016A0001448FFF7BDF89442FAD0013B002BA36029
:1016B000114D12DB0024FFF7ABFD2B68AB4204D0C9
:1016C000AA699B6892689A4204D3002383F3118825
:1016D000204638BD0948FFF7A3F8AB695C62626831
:1016E0005A601C60052013606360FFF7C1F8AB69A6
:1016F0005C6AE0E754A60008681E002014C50008D4
:1017000070B5202304460E4683F31188FFF7A8FD29
:10171000FFF7D6F83CB1002E05DBA5682368002D45
:1017200004DB9C4204D01548FFF77AF89C42FAD0BB
:101730000135002DA660D8BF6FF0010609DC606896
:10174000436863601C60FFF783F90135012D466231
:10175000F5D1FFF765F9FFF75BFD094B1A689A426F
:1017600004D0996993688A689A4203D3002383F36B
:10177000118870BD0348FFF753F800BFFCA50008AF
:10178000681E002014C500080000000000000000D2
:1017900038B5202383F311881B4CFFF761FDFFF759
:1017A00057F8FFF755F82368A06999688268914255
:1017B00010D2FFF72DFD2368A34204D0A2699B68D5
:1017C00092689A4203D3002383F3118838BD0F48EF
:1017D000FFF726F81A6822600121546083F8201070
:1017E000A361FFF735F9054608F08AFAEFF309839C
:1017F000EA69243B9A4204D82946A069FEF74AFDCB
:10180000D7E70348FFF70CF8681E002008C500085A
:1018100090A7000800000000000000000000000089
:1018200010B52023044683F31188FFF719FDACB1EE
:1018300021460820FFF77CFBFFF7EAFC094B1A68FA
:101840009A4204D0996993688A689A4203D3002324
:1018500083F3118810BD0448FEF7E2FF0348FEF74A
:10186000DFFF00BF681E002008C500086CB7000835
:10187000FF2870B523D80446202383F31188114D27
:10188000FFF7EEFCAB69DE6B9A68964201D094429A
:1018900000D99C60DC63FFF7C3F8FFF7B9FC2B6845
:1018A000AB4204D0AA699B6892689A4204D3002391
:1018B00083F31188304670BD0348FEF7B1FF03483B
:1018C000FEF7AEFF681E002008C500080CA7000840
:1018D00008B50446202383F31188FFF7C1FC204696
:1018E000FFF70EFA000000000000000000000000FA
:1018F00070B52023044683F31188FFF7B1FC94F8F8
:101900002230B3B1013B84F82230236A03F0FF1385
:101910000F2B14D0FFF77CFC254B1A689A4204D099
:10192000996993688A689A4206D3002383F31188E1
:1019300070BD2048FEF774FF1F48FEF771FF636912
:1019400022691A6122691A4D5361FFF761FC2B6805
:10195000AB4204D0AA699B6892689A42ECD30023F8
:1019600083F3118894F8213003F00303012B1AD07C
:10197000022B17D1266CE469202383F31188FFF72B
:101980006FFC2146304602F0E3FEFFF741FC2B6876
:10199000AB42CAD0AA699B6892689A42C5D20748EE
:1019A000FEF73EFF70BDE069BDE8704002F030BF59
:1019B000681E0020E4A6000808C5000840A800082A
:1019C00070B52023064683F31188FFF749FC124CBB
:1019D0003569A5421ED095F82230FF2B17D0013370
:1019E00085F82230FFF714FC2368A34204D0A269D3
:1019F0009B6892689A4207D3002383F3118830468C
:101A0000FFF776FF284670BD0448FEF709FF04483B
:101A1000FEF706FF0025E5E7681E00205CAE000823
:101A200020A70008000000000000000000000000E7
:101A300030B5202383B0044683F31188114DFFF79E
:101A40000FFC2869019090F82230013380F8223091
:101A5000FFF7DEFB2B680198AB4204D0AA699B68B4
:101A600092689A420BD3002383F3118802E0FFF7B8
:101A7000A7FF10B1C3699C42F9D103B030BD024841
:101A8000FEF7CEFE681E00205CAE000800000000DD
:101A900070B560B30446202383F31188154DFFF71A
:101AA000DFFBAB699C4222D094F82220FAB194F873
:101AB00020200F2A05D0A26A1A600920A362FEF72F
:101AC000D7FE666AFFF7A4FB2B68AB4204D0AA6975
:101AD0009B6892689A4207D3002383F311882046BB
:101AE000FFF706FF304670BD0348FEF799FE034836
:101AF000FEF796FE681E002008C5000800A7000833
:101B0000EFF30583C3F3080323B9202383F311887C
:101B1000FFF7A6BB202383F31188FFF729BB00BF83
:101B200008B5044B1A6B0AB95B6B13B10248FEF798
:101B300077FE08BD681E002040A7000800000000D6
:101B400008B5044B1A6B0AB95B6B13B10248FEF778
:101B500067FE08BD681E002068A70008000000009E
:101B600008B5EFF30583C3F3080383B9FEF758FF05
:101B7000FFF74EFB0A4B1A689A4204D099699368A2
:101B80008A689A4209D3002383F3118808BDFFF7BE
:101B9000D7FA002383F3118808BD0248FEF740FE00
:101BA000681E0020A4A5000800000000000000003E
:101BB000FEE700BF00000000000000000000000081
:101BC000F0B5124F124D134C134B144907F1800E10
:101BD00000269C4211D904391A4651F8040F42F8E4
:101BE000040B9442F9D8DA43144424F00304043477
:101BF00023449D4203D943F8046B9D42FBD8103720
:101C0000774502D297E83A00E3E7F0BDA0A70008C5
:101C10003827002038270020382700203CCA000839
:101C2000FEE700BF00000000000000000000000010
:101C3000704700BF0000000000000000000000002E
:101C4000704700BF0000000000000000000000001E
:101C50000E4B0F4A9B69DFF840800E4D4FF48056C3
:101C600080B59A61374698F800206F8340F6C41318
:101C700041F28834042A08BF1C462046FFF7D0FDF5
:101C800020462E83FFF7CCFDEDE700BF681E002045
:101C900020A80008000C02401811002000000000DD
:101CA000002918DC70B504460C4E0D4D02E0336877
:101CB0001B689847236800215B69204698470130DC
:101CC0004FF4806229460548F1D020460549BDE819
:101CD000704004F0ADB8044904F0AAB8880C0020A4
:101CE00000080020C0A80008D0A8000800000000DC
:101CF000F8B5134C0746FEF7E3FD237DD3B9FEF795
:101D0000DFFD26686568FEF7DBFD2369AA1BC3EBD0
:101D1000A203002B11DDA2680A48131DA3601760FF
:101D20009D42236998BFA6600133236108F028F81B
:101D30000020F8BD6FF00100F8BD4FF0FF30F8BD96
:101D4000600C0020800C002000000000000000005B
:101D5000F8B5134C0746FEF7B3FD237DD3B9FEF764
:101D6000AFFD94E86000FEF7ABFD2369721BC3EB87
:101D7000A203002B11DDE3680A48043B9D4288BFA3
:101D8000331FE3601F6023690133236107F0F8FF0D
:101D90000020F8BD6FF00100F8BD4FF0FF30F8BD36
:101DA000600C0020800C00200000000000000000FB
:101DB00038B50546FEF784FDCDB1114C237DCBB976
:101DC000FEF77EFD2369002B17DDE3686268196862
:101DD0000C4804339342E360296024BF2368E36026
:101DE0002369013B236107F0CBFF002038BD064883
:101DF000FEF716FD6FF0010038BD4FF0FF3038BD23
:101E0000600C0020780C002070A800080000000082
:101E10004FF08043091A5B6A1B1A8B4208D30549AD
:101E2000054A064B0648086001201070187070477C
:101E3000002070479C150020A1150020A01500204F
:101E400094A800080000000000000000000000004E
:101E50002DE9F041202380460E4683F31188FFF7D9
:101E6000FFF9FEF7F5FCB8F1000F3CD01F4C04F170
:101E700020070AE0FEF724FD2369002B1EDC314613
:101E80003846FFF7B5F8054620B9237D002BF1D081
:101E90006FF00105FFF7BCF9154B1A689A4204D0A0
:101EA000996993688A689A4205D3002383F311885D
:101EB0002846BDE8F0810F48FEF7B2FCE36862688F
:101EC00019680D4804339342E360C8F8001024BF3A
:101ED0002368E3602369013B2361002507F050FF7D
:101EE000FEF79EFDD6E70548FEF79AFC600C002041
:101EF000681E002034A80008780C002064A80008A0
:101F000008B5202383F31188FFF7AAF908F018F821
:101F1000FEF786FDFFF77CF9074B1A689A4204D05A
:101F2000996993688A689A4203D3002383F31188DE
:101F300008BD0248FEF774FC681E002034A80008A3
:101F40002DE9F84380460F46202383F31188244C63
:101F5000FFF786F904F11806FEF77AFC13E0FEF7A6
:101F6000AFFCD4F800906568FEF7AAFC2369A5EBE6
:101F70000902C3EBA203002B1EDC39463046FFF7F3
:101F800037F8054620B9237D002BE8D06FF0010516
:101F9000FFF73EF9134B1A689A4204D09969936887
:101FA0008A689A4205D3002383F311882846BDE846
:101FB000F8830D48FEF734FCA2680C48131DA3609B
:101FC000C2F800809D42236998BFC4F8089001338D
:101FD0002361002507F0D4FEFEF722FDD8E700BFFD
:101FE000600C0020681E002034A80008800C00202F
:101FF0002DE9F84380460F46202383F31188234CB4
:10200000FFF72EF904F11806FEF722FC12E0FEF7A6
:1020100057FC94E82002FEF753FC2369A9EB050264
:10202000C3EBA203002B1EDC39463046FEF7E0FF6F
:10203000054620B9237D002BE9D06FF00105FFF79D
:10204000E7F8134B1A689A4204D0996993688A6832
:102050009A4205D3002383F311882846BDE8F8830C
:102060000C48FEF7DDFBE3680B48043B9D4288BF4C
:10207000A9F10403E360C3F80080236901332361FD
:10208000002507F07DFEFEF7CBFCD8E7600C0020B2
:10209000681E002034A80008800C0020000000000A
:1020A00010B52023044683F31188FFF7D9F82146A1
:1020B0000E48FEF76DFFB0B90D4802F059FB04461B
:1020C000FFF7A6F80B4B1A689A4204D099699368F7
:1020D0008A689A4204D3002383F31188204610BDF6
:1020E0000548FEF79DFB0024EAE700BF040C002032
:1020F000100C0020681E002040A80008000000000E
:10210000A74BA84C1A694FF0FF3100222DE98048F7
:1021100019611A61586959615A61186A60F08050F2
:1021200018621A62586A59625A62196C41F08051F9
:102130001964216841F480712160196F01F44071C4
:10214000B1F5007F8BB003D04FF4803119671A6767
:10215000944E93487368944A944DDFF8C4E2944CCB
:102160009449954F23F400737360036B40F2FF1C96
:1021700043EA0C030363066D46EA0C06002306657A
:102180006FF4A84653604FF6FF709660DFF894C274
:102190008A4EC2F80CE05061DFF88CE2C2F820C031
:1021A00056624FF41076C2F800E06E604FF0FF32D6
:1021B000DFF878E2AA604FF08066C5F80CE068614D
:1021C0004FF0400E2E627E4EC5F824E02E6005F1E1
:1021D000A25505F5443505F5AA756360A260E56072
:1021E0004FF0C04560612562764D6562764D256091
:1021F000764C4B608A60CC6040F6FF74744E4C6144
:10220000744C754D0B624B620C607B6001F5805124
:10221000BA60724CFB6078613B627B62C7F800E099
:102220006F4F7360B260F3607061336273623360EA
:1022300001266B60AA60EB6068612B626B622B60A9
:102240004B608A60CB6048610B624B620B606360DD
:102250001946A260E36007F124026061236207F17E
:1022600038007B60636223603E7042F8041B824248
:102270001161FAD15B4E5C4A3A674FF0A040398158
:102280007981F967C7F88010334606F5A478F866B7
:10229000552203F8012B4345FBD15448012300226A
:1022A0000370426000F1240300F1380143F8042B6D
:1022B0008B421A61FAD14E4B4E4D4F4C02814281F6
:1022C000C267C0F8802003F5A471C5660467552273
:1022D00003F8012B8B42FBD13149484D0B6C484828
:1022E0006D6043F001030B6481682D614FF0804302
:1022F00041F0010181604FF0FF3142F2CF0098625E
:10230000D962696205F14001E96300243D4A6D61CB
:1023100001210F2028879C61AC605C63AC62DC60AB
:102320005C6059611960802382F81C334FF0805142
:102330006B8705F11C03C2F88011EB6111602B6201
:102340002D60013405EB0413802C93F830206FF3DB
:10235000020283F83020F4D14FF000094FF0FF3132
:102360000022002304A8CDE908230491C5F8309089
:10237000C5F83490C5F88498CDF81490CDF818902D
:10238000CDF81C9007F0DCFC04A8FEF7B1F91E4B59
:102390001E491F4A19601F491F48204B136047E020
:1023A000003802400070004000000240000402407B
:1023B00000080240000C02400010024000AA0A007F
:1023C00080200800000606000180200255505500BC
:1023D0000014024000010055001802400020024095
:1023E00018110020A0110020F0A80008E812002019
:1023F0007013002000000440FCA80008681E0020A4
:10240000002004E000E100E09415002038270020BF
:10241000F026002000ED00E090150020414D00085E
:10242000540001400000565500AAA02A15455155F8
:10243000DFF8DCE2CB68C0F800E04FF6FF0C9D4807
:10244000D5F814E0C5F8484803EA0C03184302F134
:10245000100313615361069BC5F88438964BC5F889
:102460007C48C5F858380124944B85F8624885F8B3
:102470006198C5F87498C2F81890C5F854E8C5F882
:102480007898C5F85058CEF81030DFF888E2C86068
:10249000DEF80C00C2F8089040F08070CEF80C0016
:1024A0008748DFF874E2C2F80C906B6103F12802F0
:1024B000AB6185F860482C33C5F86828C5F85CE83E
:1024C000C5F86C38C5F870380368202243F0010362
:1024D00010240360CC7781F82220FFF721FB89F3D9
:1024E000118862B67748FFF7A3FA10B17648FEF775
:1024F00097F9744B552103F1D80203F8011B93425D
:10250000FBD1202383F31188FEF7AAFE6F48FEF764
:10251000E7F90021FEF71CFCFEF77AFE2B68AB42C0
:1025200004D0AA699B6892689A4246D3002383F339
:102530001188674C674AA3612146636341F8042B05
:10254000A36304F28C42E3662367634B6348E2654E
:10255000636704F17C0204F521734FF00209E06324
:10256000616004F10C0004F144012262E261226323
:1025700063620122A3656365A3664FF48273A3625D
:1025800023662464A467E06020616164A164227210
:10259000227584F84C20C4F82C90C4F85090C4F8EC
:1025A0006490202383F31188FEF75AFE237A013BBF
:1025B000012B05D94A48FEF733F94A48FEF730F9AE
:1025C000494BC4F88C347C62BC63BC6284F80890CC
:1025D000FEF71EFE2B68AB4204D0AA699B68926886
:1025E0009A4263D34FF0000A8AF31188FA6E936B14
:1025F00023F40023936343F69820FFF711F920207A
:1026000080F311880390FEF72BFE97F800B0039833
:102610000BF1FF33012B02D93448FEF701F9344B9B
:10262000C7F80CA0BBF1010FC7F810A0C7F814A0A1
:10263000C7F818A0C7F81CA0C7F820A07B606DD011
:1026400002233B70FEF7E4FD2B68AB4205D0AA697C
:102650009B6892689A42C0F0D080002383F311886F
:10266000FD6E244EA96B244A2448366041F40021B3
:10267000A963802107F07CFC214F224E224D03E00C
:1026800042F21070FFF7CCF8D4F88C341B681B783A
:10269000042BF5D181232A4640F6C8018DE8C000FD
:1026A0000020FEF7EDFDFFF7F3F9E9E71748FEF725
:1026B000B7F800BF0003FA05A8A80008A826002064
:1026C000001000E0B814002058A8000808A900086D
:1026D000880C002064A90008814600088145000894
:1026E0007CA8000808C5000834A9000888A80008CC
:1026F00054A9000898150020511C0008A8150020B6
:102700003CA90008D16300082CA9000828A80008EB
:1027100000000220F0ED00E000040020444B454A98
:10272000596BD7F86C9041F080015963596941F0B9
:1027300080015961C3F814A0E02382F843330823D1
:10274000C2F8883193603C4A3C4BC9F80C20C9F868
:102750000038C0224FF45023C7F878A0C9F800AE63
:10276000C9F80020C9F83830FEF74AF8C9F810B0A7
:10277000D9F8103013F0010AFAD11220FEF740F810
:10278000D9F81030002BFBDA3B6FF86ED3F808E075
:102790000023C9F808304FF0FF3100EB4A120AF16C
:1027A000010AF245C2F80039C2F81039C2F8081916
:1027B000C2F8003BC2F8103BC2F8081BEDD97A689A
:1027C000D2684FF00111C0F81C18C9F81038C9F8C8
:1027D0001438C9F81C383AB3194BC9F81830D7F86F
:1027E00080304FF0FF32C9F814204BB1D9F80830CF
:1027F00043F00103C9F8083022E71248FEF710F849
:102800001149124B0491022204A8079208930596DD
:10281000CDF818800997FEF763F8FEF719F9C7F8A5
:102820008000FEF7FDF8E1E7094BC9F81830D6E75C
:102830000038024000E100E04014004003002002A4
:10284000083C30C04CA8000820A90008819A000864
:10285000003C30C00000000000000000000000004C
:1028600038B5064C05462046FEF7B2FE287807F03C
:10287000D7F82046BDE83840FEF74ABE500C00208D
:10288000024B00221B605B609A6070472C2700207F
:10289000FFF7F6BF0000000000000000000000008D
:1028A000FFF7EEBF00000000000000000000000085
:1028B000FFF7E6BF0000000000000000000000007D
:1028C000024B01221B605B609A6070472C2700203E
:1028D00010B5064C4FF4FA70FEF7A2FF2046FEF743
:1028E00077FE2046BDE81040FEF712BE500C0020D7
:1028F00000210148FEF704BF2C2700200000000043
:1029000006F04EB8000000000000000000000000CB
:1029100006F046B8000000000000000000000000C3
:102920001E4B1F4A9B691F48996870B51E4D1F4C6E
:102930000131002301262E6007F01AFB1C4A0223F6
:1029400010602B6007F094FB20681A49001BB0FA56
:1029500080F0400906F03CFF00B170BDA068164948
:10296000B0FA80F0400906F033FF0028F5D10323C8
:102970002B6007F07DFB20680E49001BB0FA80F049
:10298000400906F025FF0028E7D1A0680A49B0FAFF
:1029900080F04009BDE8704006F01ABF681E0020B4
:1029A0003188000810170020F81D00202C27002077
:1029B000981D00202CAA00083CAA00080000000076
:1029C0002DE9F843DFF8E0802C4FD8F818302C4E72
:1029D0009968DFF8D8902B4B2B4D3A46053130469D
:1029E0000124C9F8004007F0C3FAD8F8183028606D
:1029F0009968264B264C3A46013106F5A47007F03B
:102A0000B7FAD8F8183068609968224B3A46033113
:102A100006F5247007F0ACFAD8F81830A860996869
:102A20001D4B3A46043106F5767007F0A1FAD8F846
:102A30001830E8609968194B02313A4606F5A460EF
:102A400007F096FA022328612046C9F80030FEF705
:102A5000DFFD2046FEF7DCFD2046FEF7D9FD2046CF
:102A6000FEF7D6FD2046FEF7D3FD05F099FF0C4991
:102A70000C48BDE8F84306F083BE00BF518800084B
:102A800010170020DCA90008981D0020E0A900080C
:102A90002C270020E4A9000814B3000800AA0008AD
:102AA000E8A90008FCA90008681E0020F81D002005
:102AB000F8B506462148FEF78BFD202383F31188E5
:102AC0001F4DFEF7CDFBAC69FDF7C2FEA76B002FD3
:102AD00030D03846FEF72CF81A486062034603E00F
:102AE0009968A268914202D31B688342F8D15A6860
:102AF00062602360072014605C60FDF7B9FE384611
:102B0000FEF75EF8FEF784FB2B68AB4204D0AA699F
:102B10009B6892689A420AD3002383F31188307825
:102B200006F07EFF0548BDE8F840FEF7F1BC064818
:102B3000FDF776FE0548FDF773FE00BF500C002040
:102B4000681E0020480C00202CC5000890A9000831
:102B500008B540F2DC50FEF763FE202383F31188B2
:102B6000FEF77EFB0C48FEF72BF80B48FDF7E0FF65
:102B7000FDF756FFFEF74CFB084B1A689A4204D04B
:102B8000996993688A689A4203D3002383F3118872
:102B900008BD0348FDF744FE240C0020681E0020F9
:102BA00090AD0008000000000000000000000000E0
:102BB000F0B5A74E85B001AC01220023039332602B
:102BC00001940294202383F31188FEF749FBFDF75B
:102BD00077FE03989F490028CCBF0020012006F013
:102BE000F7FD80B1FEF714FB9B4B1A689A4205D0A3
:102BF000996993688A689A42C0F01F81002383F321
:102C0000118805B0F0BD944DFEF702FB2B68AB4276
:102C100005D0AA699B6892689A42C0F00E81002193
:102C200081F31188022320463360FEF769FD2023DB
:102C300083F31188FEF714FBFDF742FE03988549E4
:102C40000028CCBF0020012006F0C2FD002840F083
:102C5000E880FEF7DDFA2B68AB4205D0AA699B68D5
:102C600092689A42C0F0E980002383F31188AB692F
:102C70007A4A99687A48013923460327376007F072
:102C800077F9784A0423106020463360FEF7F8FC99
:102C90002023074683F31188FEF7E2FAFDF710FEC2
:102CA00003986C490028CCBF0020012006F090FD5D
:102CB000002840F0B680FEF7ABFA2B68AB4205D097
:102CC000AA699B6892689A42C0F0B780002383F398
:102CD0001188B7FA87F04009634906F079FD0028AA
:102CE0008FD105233360202383F31188FEF7B8FAD0
:102CF000FDF7E6FD039B002B40F3A280FDF790FE5D
:102D0000FEF786FA2B68AB4205D0AA699B689268E9
:102D10009A42C0F09280002383F31188202383F32A
:102D20001188FEF79DFAFDF7CBFD03984F49002867
:102D3000D4BF0020012006F04BFD002871D1FEF722
:102D400067FA2B68AB4204D0AA699B6892689A42E2
:102D500073D3002383F31188202383F31188FEF7B4
:102D60007FFAFDF7ADFD03984149A0F10100B0FAEB
:102D700080F0400906F02CFD002852D1FEF748FAF9
:102D80002B68AB4204D0AA699B6892689A4254D3DC
:102D9000002383F3118806233360202383F31188F3
:102DA000FEF75EFAFDF78CFD039B002B4CDDFDF773
:102DB00037FEFEF72DFA2B68AB4204D0AA699B6858
:102DC00092689A4239D3002383F31188202383F336
:102DD0001188FEF745FAFDF773FD03982549002891
:102DE000D4BF0020012006F0F3FCD0B9FEF710FAA2
:102DF0002B68AB4204D0AA699B6892689A421CD3A4
:102E0000002383F31188202383F31188FEF728FA27
:102E1000FDF756FD03981649431E5842584106F0E7
:102E2000D7FCFEF7F5F92B68AB423FF4E7AEAA6991
:102E30009B6892689A42BFF4E1AE0F48FDF7F0FC40
:102E40002046FDF735FF59E72046FDF731FFAEE795
:102E5000F81D002050AA0008681E0020C13200089A
:102E600010170020981D00205CAA000870AA000816
:102E70007CAA000854AA000884A9000800000000E9
:102E8000F8B53E4E3E4CB2693E4B91683E483F4AD3
:102E900001310125256007F06BF83D4B02251860D4
:102EA0002560202383F311883A4CFEF7D9F9FDF70A
:102EB00007FDA3682268002B04DBA24204D0364839
:102EC000FDF7AEFCA242FAD0002703E0012D0ED0A0
:102ED000A36801250133002BA360F7DC2068036899
:102EE00023605C60FDF7B4FD012D4762F0D1FDF772
:102EF00097FDFEF78DF93368B34204D0B2699B6841
:102F000092689A4228D3002383F3118805F048FD84
:102F1000202383F31188FEF7A3F9FDF7D1FCA06805
:102F20001E49A0F10100B0FA80F0400906F050FC03
:102F3000A8B9FEF76DF93368B34204D0B2699B6853
:102F400092689A4208D3002383F3118814490D48EC
:102F5000BDE8F84006F014BC1248FDF761FCFEF72E
:102F600057F93368B34204D0B2699B6892689A42B9
:102F7000F2D3002383F31188F8BD00BF681E002040
:102F8000F81D0020DCA90008101700205188000857
:102F9000981D00202C2700209CA900081CAA0008CE
:102FA000E8A9000884A90008000000000000000053
:102FB0002DE9F84F6B4D01232B60202383F31188FB
:102FC000FEF74EF900216848684CFDF7E1FF064620
:102FD000FEF71EF92368A34205D0A2699B68926898
:102FE0009A42C0F0BC80002383F31188A6F1FF3021
:102FF000B0FA80F05E49400906F0EAFB08B1BDE88E
:10300000F88F594E5B493068801BB0FA80F0400958
:1030100006F0DEFB0028F2D1B0685749B0FA80F024
:10302000400906F0D5FB03460028E8D1A169534AC0
:1030300089685348013902272F6006F099FF514AE9
:103040002023106083F31188FEF70AF941F28831DA
:103050003046FDF79DFF0746FEF7DAF82368A342E6
:1030600004D0A2699B6892689A4278D3002383F3C4
:10307000118805F095FCB7FA87F040093C4906F045
:10308000A7FB0028BBD130683A49801BB0FA80F01A
:10309000400906F09DFB0028B1D1B0683649B0FA6E
:1030A00080F0400906F094FB0028A8D103232B6090
:1030B00006F09EF82C4FDFF8B890DFF8B880412575
:1030C0008246284606F0ACFC202383F31188FEF7E5
:1030D000C7F84FF4FA713846FDF75AFF8346FEF7FA
:1030E00097F82368A34204D0A2699B6892689A4229
:1030F00035D3002383F31188ABF1FF30B0FA80F0B1
:103100004009494606F064FB00287FF478AF306838
:10311000801BB0FA80F04146400906F059FB0028B8
:103120007FF46DAFB0681449B0FA80F0400906F042
:103130004FFB00287FF463AF0135EDB2462DC0D1BF
:103140001149124806F01CFB00287FF458AF0AF61C
:10315000D8110AF6C410BDE8F84FFEF759BE0C4866
:10316000FDF75EFBF81D00202C270020681E0020C4
:1031700004AA00082CAA00083CAA0008618B0008D9
:1031800010170020981D0020E8A90008FCA90008DD
:1031900014C500080000000000000000000000004E
:1031A000F8B5414C414E012320463360FEF768FAE2
:1031B0002023074683F31188FEF752F8FDF780FBC2
:1031C000A0683B49B0FA80F0400906F001FB0028F6
:1031D0005BD1384DFEF71CF82B68AB4204D0AA69CE
:1031E0009B6892689A424DD3002383F31188B7FA03
:1031F00087F04009304906F0EBFA00B1F8BD022330
:1032000029483360FEF704FA202383F31188FEF780
:1032100027F8FDF755FBA0682549A0F10100B0FA99
:1032200080F0400906F0D4FA10BBFDF7F1FF2B68DF
:10323000AB4204D0AA699B6892689A4222D30023C9
:1032400083F311880323022117483360FEF758FAED
:10325000202383F31188FEF703F8FDF731FBA06804
:103260001349A0F10200B0FA80F0400906F0B0FA6C
:10327000FDF7CEFF2B68AB4212D0AA699B6892681B
:103280009A420DD20D48FDF7CBFAFDF7C1FF094B6D
:103290001A689A4204D0996993688A689A42F1D36D
:1032A000002383F31188F8BD2C270020F81D00208F
:1032B000B0A90008681E0020C4A9000884A900085D
:1032C00010B52023044683F31188FDF7C9FFFDF7ED
:1032D000F7FAA368002B13DDFDF7A2FBFDF798FFBB
:1032E000094B1A689A4204D0996993688A689A428D
:1032F00003D3002383F3118810BD0448FDF790FA2F
:103300002046FDF7D5FCE7E7681E002084A90008E9
:10331000704700BF00000000000000000000000037
:103320002DE9F04383B002ACDFF8D080DFF8D09015
:103330002D4F2E4E2E4D0122002344F8043DC9F896
:10334000002005F055FFD8F8183099683A46234612
:103350000139304606F00CFED8F81830286099681C
:103360003A462346013906F5A47006F001FED8F866
:103370001830686099683A462346013906F524708A
:1033800006F0F6FDD8F81830A86099683A4623464A
:10339000013906F5767006F0EBFDD8F81830E860D4
:1033A00099683A460139234606F5A46006F0E0FD27
:1033B0000223286142F21070C9F80030FEF730FA9B
:1033C00005F03EFF05F0ECFA03230A48C9F8003087
:1033D00006F03EF8019806F053F8074806F018F892
:1033E00003B0BDE8F08300BF1134000810170020BF
:1033F000981D00203CAC00084CAC0008681E002062
:10340000F81D002000000000000000000000000087
:1034100038B5094D0446FEF7BBF9FEF7B9F9FEF7DA
:10342000B7F9FEF7B5F92368AA690433236092F867
:1034300021305B07EFD538BD681E0020000000007A
:103440002DE9F041354DDFF80481AB69344A9968C4
:103450003448354C354F01230531C8F8003000237E
:1034600006F086FDAB69206099682D4A304804312A
:10347000002306F07DFDAB6960609968284A2D48FD
:103480000331002306F074FDAB69A0609968244AFB
:1034900029480231002306F06BFDAB69E0609968B2
:1034A0001F4A26480131002306F062FD02232061F5
:1034B000C8F8003005F09CFE002406464FF0804519
:1034C00000213846FEF71CF96B6A42F20F729B1B13
:1034D000934204F10104F3D90323C8F8003005F046
:1034E000AFFE00211148FEF70BF905F059FA04234D
:1034F0001348C8F8003005F0ABFF204605F0C0FFC8
:1035000004EB44040F4805F0A3FF600005F0B8FF8A
:103510000D48BDE8F04105F07BBF00BF681E0020EC
:103520005135000810170020981D0020EC1D0020C8
:1035300058180020A0190020E81A0020301C002094
:103540003CAC000828AC00084CAC0008F81D00207A
:1035500038B5084CA36993F821305A0708D4064DB2
:103560002846FEF78DF8A36993F821305B07F7D55D
:1035700038BD00BF681E0020EC1D002000000000C8
:10358000024B00221B605B609A607047EC1D0020BC
:10359000034B00224FF4A47159601A609A6070477F
:1035A00020270020000000000000000000000000B4
:1035B0002DE9F843174BDFF86C909B69DFF86880C2
:1035C0009D68154F01231D44C9F8003005F010FE19
:1035D00000240646002342462946384606F0C8FC29
:1035E000FEF786F94FF0804342F20F725B6A9B1B35
:1035F000934204F10104EDD902230848C9F80030D0
:1036000005F026FF204605F03BFF0548BDE8F843DE
:1036100005F0FEBE681E0020101700203CAC00081C
:103620001CAC0008F81D0020513E000800000000FE
:103630002DE9F843174BDFF86C909B69DFF8688041
:103640009D68154F0123C9F8003005F0D1FD013DFB
:1036500000240646002342462946384606F088FCE8
:10366000FEF716FA4FF0804342F20F725B6A9B1B23
:10367000934204F10104EDD902230848C9F800304F
:1036800005F0E6FE204605F0FBFE0548BDE8F843E0
:1036900005F0BEBE681E0020101700203CAC0008DC
:1036A0001CAC0008F81D0020513E0008000000007E
:1036B0000849094B10B40022CC2481E8140003F11E
:1036C00010009960DA60186158611A609A6110BC44
:1036D000704700BF10170020F01600200000000007
:1036E00010B5FDF745FE90F820200D2A02D00548C0
:1036F000FDF796F8446A2146FDF70AFE002CF0D14A
:1037000010BD00BF90AA00080000000000000000EB
:103710002DE9F041054605F06BFD002480464FF091
:10372000804742F20F7601212846FDF759FE7B6A59
:10373000A3EB0803B34204F10104F4D928460021A5
:10374000FDF74EFE2046BDE8F08100BF00000000FE
:103750002DE9F0412C4E2D4DB3692D4F99682D4A1E
:103760002D4CDFF8C4804FF0010E013128460023B4
:10377000C7F800E006F0FCFBB369206099684FF0E1
:10378000020E4246023905F5A4700023C7F800E096
:1037900006F0EEFBB369606099684246033905F5AF
:1037A0002470002306F0E4FBB369A06099684246E8
:1037B000043905F57670002306F0DAFBB369E060A2
:1037C00099684246053905F5A460002306F0D0FB50
:1037D0000323206120683B60FFF79AFF044605F051
:1037E000DFF804230D483B6005F032FE204605F06B
:1037F00047FE0B4805F02CFE600005F041FE09482D
:10380000BDE8F04105F004BE681E0020101700203E
:10381000F81D0020E1360008981D00203CAC00088F
:1038200010AC00084CAC0008513E0008000000003D
:1038300038B5144B144C9B69144A996814480131EB
:1038400001250023256006F093FB124A0223106035
:103850002360FFF75DFF054605F0A2F803230E483D
:10386000236005F0F5FD284605F00AFE0B4805F03B
:10387000EFFD680005F004FE0948BDE8384005F09A
:10388000C7BD00BF681E0020F81D0020E1360008FB
:1038900010170020981D00203CAC000810AC000858
:1038A0004CAC000800000000000000000000000018
:1038B00038B5144B144C9B69144A99681448013963
:1038C00001250023256006F053FB124A02231060F5
:1038D0002360FFF71DFF054605F062F803230E483D
:1038E000236005F0B5FD284605F0CAFD0B4805F03C
:1038F000AFFD680005F0C4FD0948BDE8384005F09B
:1039000087BD00BF681E0020F81D0020E1360008BA
:1039100010170020981D00203CAC000810AC0008D7
:103920004CAC000800000000000000000000000097
:1039300004F09EBF00000000000000000000000036
:103940002DE9F041464B474C9B6947489E6886B03D
:10395000022305A904AA236000F022FF0546A0F176
:103960000100B0FA80F04009404905F031FF10B184
:1039700006B0BDE8F0813E4BDFF8308101930321B2
:103980002160CDF800804FF4A471731E394A364887
:10399000394FFDF775FC3860003018BF01203749FA
:1039A00005F016FF0028E3D1354B01930421B31E27
:1039B0002160CDF800804FF4A471324A2A48FDF707
:1039C0005FFC0346003018BF01202C497B6005F0E6
:1039D000FFFE0028CCD12C4A0192F31E2B49CDF8D2
:1039E000008005262A4A20482660FDF749FC034648
:1039F000B0FA80F0F0402749BB6005F0E9FE0028EE
:103A0000B6D10623236004F0CBFF2349234805F0F9
:103A1000B7FE0028ACD1072303A902AA12482360ED
:103A200000F0BEFE281AB0FA80F01D49400905F0EA
:103A3000CFFE00289CD10598039B1A49C01AB0FA02
:103A400080F0400905F0C4FE002891D10498029B43
:103A50001549C01AB0FA80F0400905F0B9FE87E7B1
:103A6000681E0020F81D0020F016002020AB000882
:103A7000DCA9000830AB0008981D002038AB000816
:103A8000E0A9000850AB0008E4A90008C800020043
:103A900058AB000860AB0008E8A900087CAB000840
:103AA00080AB000898AB0008B4AB000831390008BF
:103AB00070B5144C82B001236A4601A9002023602E
:103AC00000F06EFE1021104806F0B2F906460030F4
:103AD00018BF01200D4905F07BFE80B90546304630
:103AE00000F096FE02236FF0FF012846236006F0E7
:103AF0009FF9B0FA80F04009054905F069FE02B06F
:103B000070BD00BFF81D0020781D0020F4AA000839
:103B100008AB0008000000000000000000000000EA
:103B20002DE9F041C04CC14884B001236946002210
:103B3000236000F035FEA0F10100B0FA80F0BC492E
:103B4000400905F045FE10B104B0BDE8F081022344
:103B50004FF44D61B548236006F06AF9B0FA80F081
:103B60004009B44905F034FE0028EDD103231021AB
:103B7000AE48236006F05CF90546003018BF01200E
:103B8000AD4905F025FE0028DED1284600F040FEB4
:103B9000042302A903AAA548236000F001FE0346FE
:103BA000A0F10100B0FA80F04009A449019305F0AA
:103BB0000FFE0028C8D10298A1490F2894BF002009
:103BC000012005F005FE0028BED10298039B9C4908
:103BD000C01AB0FA80F0400905F0FAFD0546002849
:103BE000B2D1052310219148236006F021F910215C
:103BF00080468E4806F01CF9102107468B4806F0D7
:103C000017F90646404600F003FE384600F000FE75
:103C1000304600F0FDFD2A4601A9844800F0C0FDB1
:103C2000A0F10100B0FA80F08149400905F0D0FD13
:103C30000546002888D1062310217C48236006F021
:103C4000F7F810210646794806F0F2F810210746E9
:103C5000764806F0EDF800F0DBFD384600F0D8FDC0
:103C6000304600F0D5FD2A4601A9704800F098FDC5
:103C7000A0F10100B0FA80F06D49400905F0A8FDFF
:103C8000054600287FF460AF0723112167482360B1
:103C900006F0CEF810210646644806F0C9F807463B
:103CA000304600F0B5FD2A4601A9604800F078FDD5
:103CB000A0F10208D8F10000624940EB080005F0CD
:103CC00087FD054600287FF43FAF1021574806F0D6
:103CD000AFF82A46064601A9544800F061FD0128C4
:103CE00000F09F80002201A9504800F059FDA0F18A
:103CF000020CDCF1000040EB0C004D4905F068FDC2
:103D0000054600287FF420AF384600F081FD30469C
:103D100000F07EFD2A4601A9444800F041FD00F173
:103D2000FF3EDEF10000424940EB0E0005F050FD81
:103D3000054600287FF408AF082310213B48236084
:103D400006F076F810210746384806F071F8064666
:103D5000384600F05DFD2A4601A9344800F020FDF8
:103D6000871E78423749784105F032FD0546002824
:103D70007FF4EAAE20212D4806F05AF800F048FD05
:103D8000304600F045FD2A4601A9284800F008FD0C
:103D9000451E68422649684105F01AFD0246002882
:103DA0007FF4D2AE092301A92048236000F0F8FC7B
:103DB00001991E4806F03CF8064600301E4918BF1F
:103DC000012005F005FD024600287FF4BDAE014646
:103DD000164800F0E5FCB0FA80F040091A4905F0F9
:103DE000F7FC054600287FF4AFAE304600F010FD2A
:103DF0002A4601A90A230D48236000F0D1FC421E87
:103E0000504250410A4905F0E3FC00287FF49CAE83
:103E10000198009B0D49C31A5842584105F0D8FC3F
:103E200092E6012069E700BFF81D0020781D002000
:103E300020AB000808AB0008F4AA00089CAA000800
:103E4000B0AA0008C8AA0008D8AA0008E4AA000876
:103E5000FDF73EBD00000000000000000000000073
:103E60002DE9F84F394DDFF80081AB69384A996880
:103E70003848013101240023C8F8004006F078F8E2
:103E8000354A022304461060C8F8003005F0B0F946
:103E90000026B346824620274FF0804987F31188D9
:103EA000FDF7DEF920460021FCF752FF20460021F5
:103EB000FCF74EFF20460021FCF74AFF2046002178
:103EC000FCF746FFFDF7A4F92B68AB4204D0AA69C2
:103ED0009B6892689A4235D38BF31188D9F82430C5
:103EE00042F20F72A3EB0A03934206F10406D5D9FE
:103EF0000323C8F80030202383F31188FDF7B0F9BD
:103F000020464FF0FF31FCF723FFFDF781F92B68C6
:103F1000AB4204D0AA699B6892689A4212D30023EC
:103F200083F3118804F03CFD04230C48C8F80030EA
:103F300005F08EFA700005F0A3FA0948BDE8F84FC5
:103F400005F066BA0748FCF76BFC00BF681E00204E
:103F5000713F000810170020981D00203CAC00089D
:103F60004CAC000850AE0008F81D00200000000016
:103F700038B50F4D2023AC6983F31188FDF770F934
:103F80000320FCF775FC636A002BF9D0FDF740F9BC
:103F90002B68AB4204D0AA699B6892689A4203D30B
:103FA000002383F3118838BD0248FCF739FC00BFB9
:103FB000681E002050AE0008000000000000000055
:103FC0002DE9F84F484E494DDFF874B1484CDFF801
:103FD00064810123336005F10C0A20274FF00009AA
:103FE00087F31188FDF73CF95946404600F0B0FBD5
:103FF000FDF70EF92368A34204D0A2699B6892687A
:104000009A4206D389F31188554505D055F804BB6B
:10401000E6E73848FCF704FCA369374A9D6837484F
:10402000374C0323691E336006F0C2F9A91E2060D5
:10403000344A354806F0BCF9E91E6060334A34481A
:1040400006F0B6F9291FA060324A334806F0B0F9ED
:10405000324AE060691F324806F0AAF923682061FD
:1040600004223260002B3DD0606828B1A06818B1EE
:10407000E068003018BF01202A4905F0A9FB08B10B
:10408000BDE8F88F20692849B0FA80F0400905F0B2
:104090009FFB0028F4D10523336004F081FC234901
:1040A000234805F06DFB0028EAD10623214F224D5D
:1040B00033600424384600F01BFE003018BF012096
:1040C000294605F085FB0028DAD1013CF2D11948D8
:1040D00000F00EFEB0FA80F040091849BDE8F84F34
:1040E00005F076BB1846C7E7F81D00205CAC000859
:1040F000681E002040A80008DCA9000830AB0008BA
:10410000981D0020E0A9000850AB0008E4A90008B1
:1041100058AB000814B30008D4AB000800AA00088C
:10412000DCAB000838AB000860AB0008E8A9000869
:10413000E4AB000820270020ECAB0008FCAB000833
:104140001017002000000000000000000000000028
:10415000704700BF000000000000000000000000E9
:1041600090F85C3003F06003202B01D000207047F2
:1041700090F85D30212B03D0222B09D0202BF5D1D4
:10418000064B0365072200234265836501207047C3
:104190000023036543658365012070471C0C0020E4
:1041A00080B400AFEFF30983203383F30988002341
:1041B00083F31188BD4680BC704700BF000000003B
:1041C00070B50D460446FCF743FBD5B1E369043BEB
:1041D0009D4216D8E368A3B12369A1691D60E06917
:1041E000E26803448B42236124BF636A2361013A7E
:1041F000236BE2600022A26233B12046BDE870402A
:1042000018470248FCF70CFB70BD00BF6CAD0008FE
:1042100010B50446FCF71CFBE3689BB16369E069D9
:10422000A169E26803448B42636124BF636A6361EE
:10423000013A236BE2600022A26233B12046BDE85E
:10424000104018470148FCF7EBFA10BDFCAC000821
:1042500038B504460D46FCF7FBFA07E0237A93B91C
:1042600029462046FCF7C4FE00280EDBE368002B3D
:10427000F4D0E36853B12369E1691A1D0B44A262CB
:10428000E362002038BD6FF0010038BD0148FCF743
:10429000C7FA00BF50AD0008000000000000000099
:1042A00038B504460D46FCF7D3FA07E0237A93B9F4
:1042B00029462046FCF79CFE00280EDBE368002B15
:1042C000F4D0E36853B163691A6804331A44E262B4
:1042D000A362002038BD6FF0010038BD0148FCF733
:1042E0009FFA00BFE0AC00080000000000000000E2
:1042F0002DE9F84304460E461546FCF7E1FA1CB1D9
:1043000015B12378042B02D05E48FCF789FA0FFA26
:1043100086F804EB8807FB68002BF5D16A69FD601D
:104320001AB1136053609360D360AB6923B100226C
:104330001A605A609A60DA60FB681A6802F0030239
:10434000022A5DD0032A5ED04F485049012A0CBF93
:1043500081468946E56E99697201A8184FF0000EF2
:10436000C0F810EB002954D0588A06F158014901D1
:1043700040EA0900685006F1100ED5F81C0801212A
:1043800001FA0EF10143C5F81C182A4459690020AE
:10439000C2F81009002950D09A8B198A606F012A3F
:1043A0004FEA910388BF53431918226F616752681F
:1043B00091422BD806F13F01E26E40EA034305EB40
:1043C0008101B00140F020004B6010611369990633
:1043D000FCD41220FCF714FAFB681A8A06F1480391
:1043E00042EA86525B0142EA0902EA500121D5F80D
:1043F0001C3801FA06F61E43C5F81C68BDE8F883B0
:10440000DFF89490A6E7DFF89490A3E72048FCF744
:1044100007FA05EB481106F1100ED1F8000B20F455
:104420000040C1F8000BD5F81C18012000FA0EF06E
:1044300021EA0001C5F81C18A7E706F13F03E26E68
:10444000144805EB8303B10141F02001586011616C
:1044500013699B06FCD405EB48181220FCF7D0F931
:10446000D8F8003923F40043C8F80039D5F81C38CF
:10447000012202FA06F623EA0603C5F81C38BDE855
:10448000F88300BF24AD00080080041000800010F5
:1044900038B50008000400020080081000800C10ED
:1044A000F8B5D0F88C6437683B78042B01D0012034
:1044B000F8BD037A022BFAD133797A89012505FAFE
:1044C00003F31342F3D10446FCF7FAF9E269236AD5
:1044D0009A4209D00432EAD0384671794FF4807399
:1044E00002F0CEFC0020F8BDA369002BDFD1F1E77C
:1044F0000D3138B550F82140002C3BD0202383F3F8
:104500001188FCF735FE201D0421FCF7F1FAD4F8E0
:104510008C241368527903EB8203DB689B695D6826
:10452000FCF7CEF91DB3A36A043B9D421FD8E36993
:10453000226A934218D01D60A06AA269616A03448E
:1045400001328B42A261E36101D3236BE36104F189
:104550000C0005F015FC2046FFF7A2FFFCF7F0FD6C
:10456000002383F3118838BDA269002AE3D00248F2
:10457000FCF756F938BD00BFCCAC000800000000C5
:10458000406BFFF78DBF00BF00000000000000007F
:1045900038B504460D46FCF793F9606922698242FA
:1045A00003D050F8043B2B6038BDE268002AF8D0F5
:1045B000002038BD000000000000000000000000E6
:1045C000F0B500EB810383B01C6A0CB30E460546C0
:1045D000202383F3118800EB8107FCF7C9FD201D20
:1045E0000821FCF785FAFB685B691B6893B94434C2
:1045F000204601A9FFF7CCFF38B3024631462846D2
:10460000019B02F0CDFBFCF79BFD002383F3118897
:1046100003B0F0BDFCF754F9A36D626D9A4224D04B
:10462000206E226DE16D034401328B422265A36549
:1046300001D3A36EA3654434204605F0A1FB2046B8
:1046400001A9FFF7A5FF0028D7D1FB685A691268B6
:10465000002AD8D01B8A013B1340D4D1314605F142
:104660005C02284602F09CFBCDE7226D002AD7D0E1
:104670000148FCF7D5F800BF38AD00080000000085
:1046800010B5446BD4F88C2413681978042982B0CF
:1046900001D002B010BD217A0229FAD111791A890C
:1046A00001238B401342F4D101A904F14400FFF728
:1046B0006FFF02460028ECD0D4F88C04019B0179EE
:1046C000006802F06DFBE4E700000000000000005D
:1046D00008B54FF08043DA68920701D5586308BDEA
:1046E0000148FCF79DF800BFC0AC000800000000C6
:1046F000202383F31188114B5B6813F4006302D10C
:1047000083F31188704780B400AFEFF309834FF053
:10471000807243F8042CA3F1200282F30988084A2E
:10472000116892698968926891428CBF054A064A6D
:1047300043F8082CBD4680BC704700BF00ED00E088
:10474000681E0020B9020008C40200080000000032
:1047500038B504460D46FCF7B3F824B11DB1236803
:104760002B60256038BD0148FCF75AF8A8AC00085A
:1047700010B50446FCF7A4F864B1206810B10368D2
:10478000236010BDA36823B160680421BDE8104018
:10479000184710BD0148FCF743F800BF98AC00086B
:1047A0002DE9F843174C002818BF044604F1100700
:1047B000384689469046FCF70BFFA368F3B1002406
:1047C0002546264658681B68844206F101060544C2
:1047D00038BF0446002BF5D1B9F1000F02D0ED002F
:1047E000C9F80050B8F1000F02D0E400C8F800404A
:1047F0003846FCF78DFE3046BDE8F8831C461D4662
:104800001E46E9E7F026002000000000000000003E
:1048100070B528B34307054622D150F8043C50F840
:10482000084C0733DB0804F1100640F8043C083458
:104830003046FCF7CDFEA5F1080123468B4205D892
:104840005A68013203EBC202914209D3A3421A68AB
:1048500001D08B4202D232B1914204D31346EDE72C
:104860001A48FBF7DDFF45F8082C196055F8042CB1
:1048700055F8084C013201EBC200A0420AD058683A
:10488000421C03EBC202914212D03046BDE8704098
:10489000FCF73EBE4068104445F8040C51F8322045
:1048A00045F8082C5868421C03EBC2029142ECD137
:1048B00055F8042C01321044586055F8082C1A6041
:1048C0003046BDE87040FCF723BE00BFB4AC000822
:1048D0002DE9F04F85B0002A00F08B809846044601
:1048E0008B461746202383F31188FCF7B9FC4FF061
:1048F0008043A06A5A6A03930025424408F1FF33BB
:10490000404E02920193A94600284FD0E36AA7EBDC
:10491000050A1B1A9A4528BF9A46BAF1400F23D9B7
:104920000BF14003DBF800E0DBF80410DBF80820B3
:10493000DBF80CC0C0F80CC00BF1100B9B45C0F8A5
:1049400000E04160826000F11000EBD1A36AE26AEE
:1049500040339A4205F14005A36211D8E16920462F
:104960000439FFF72DFC0BE052465946FBF7ACFC2F
:10497000A36AE26A53449A425544D344A362EDD9F0
:10498000FCF746FC3368B34204D0B2699B68926876
:104990009A422BD389F31188BD4223D2202383F37B
:1049A0001188FCF75DFCA06A0028AFD1019B03339E
:1049B00022D8039B596A029B591A884505D3204681
:1049C000FFF746FC08B9A06AA0E7FCF721FC3368B2
:1049D000B34204D0B2699B6892689A4206D300231E
:1049E00083F31188284605B0BDE8F08F0648FBF731
:1049F00017FF0648FBF714FF41462046FFF728FC47
:104A0000E0E700BF681E002078AC000880AD000819
:104A10004430FFF75DBF00BF000000000000000051
:104A200044304FF0FF33FFF753BF00BF00000000DA
:104A300070B5202382B004460D46164683F31188D4
:104A4000FCF70EFCA36AFBB11D70A36AE26A013396
:104A50009342A36212D2FCF7DBFB174B1A689A420F
:104A600004D0996993688A689A4204D3002080F33D
:104A7000118802B070BD1148FBF7D2FEE1692046F3
:104A80000439FFF79DFBE6E731462046FFF7E0FBE0
:104A900008B9A36AD8E70190FCF7BAFB064B019866
:104AA0001A689A4204D0996993688A689A42E2D354
:104AB000002383F31188DCE7681E002078AC00082F
:104AC0004430FFF7B5BF00BF000000000000000049
:104AD00044304FF0FF32FFF7ABBF00BF00000000D3
:104AE0002DE9F04F85B0002A00F08B8099460446EE
:104AF0000F469046202383F31188FCF7B1FB4FF05B
:104B00008043A16A5A6A039300254A4409F1FF339E
:104B1000404E02920193AA4600294FD0E36AA8EBC7
:104B2000050B5B1A9B4528BF9B46BBF1400F23D961
:104B300001F140023B46D1F800C0D1F804E088689A
:104B4000D1F80CB0C3F80CB010319142C3F800C0DA
:104B5000C3F804E0986003F11003ECD1A36AE26AA1
:104B600040339A4207F1400705F14005A3620FD890
:104B70002046FFF74DFB0BE05A463846FBF7A4FBF7
:104B8000A36AE26A5B449A425D445F44A362EFD940
:104B9000FCF73EFB3368B34204D0B2699B6892686D
:104BA0009A422BD38AF31188454523D2202383F3DD
:104BB0001188FCF755FBA16A0029AFD1019B033393
:104BC00022D8039B596A029B591A894505D320466E
:104BD000FFF766FB08B9A16AA0E7FCF719FB336889
:104BE000B34204D0B2699B6892689A4206D300230C
:104BF00083F31188284605B0BDE8F08F0648FBF71F
:104C00000FFE0648FBF70CFE49462046FFF748FB1F
:104C1000E0E700BF681E002078AC000814AD000873
:104C20000C30FFF75DBF00BF000000000000000077
:104C30000C304FF0FF33FFF753BF00BF0000000000
:104C400030B5202383B004460D4683F31188FCF76A
:104C500007FBA36A53B313F8015BE26AA3629342B2
:104C600020D2FCF7D5FA154B1A689A4204D09969FC
:104C700093688A689A4212D32846002383F31188E6
:104C800003B030BD0190FCF7C3FA0C4B01981A68D1
:104C90009A42F2D0996993688A689A42EDD208489C
:104CA000FBF7BEFD2046FFF7B3FADAE729462046B8
:104CB000FFF7F6FA0028E5D1A36ACCE7681E0020CA
:104CC00078AC0008000000000000000000000000B8
:104CD0000C30FFF7B5BF00BF00000000000000006F
:104CE0000C304FF0FF31FFF7ABBF00BF00000000FA
:104CF00010B52023044683F31188FCF7B1FA20464F
:104D0000FFF736FD0446FCF783FA084B1A689A420F
:104D100004D0996993688A689A4204D3002383F384
:104D20001188204610BD0248FBF77AFD681E00205E
:104D300040A8000800000000000000000000000083
:104D4000F8B505460C46202383F31188FCF788FA52
:104D5000FBF7B6FD1CB3611E14EA01071FD1134E09
:104D6000134A3068136801382044644220400D44DF
:104D70002C401B1A9C4202D8044434600746FCF7BE
:104D800047FA0C4B1A689A4204D0996993688A686A
:104D90009A4207D3002383F311883846F8BD0648AA
:104DA000FBF73EFD0548FBF73BFD00BF94150020D7
:104DB00090150020681E002084AC00086CAC000830
:104DC00002F0FEBA00000000000000000000000039
:104DD00002F0F6BA00000000000000000000000031
:104DE000064A074B0749126000200960496052607B
:104DF000906098601B605B60704700BF500C0020A3
:104E0000240C0020480C00200000000000000000DE
:104E1000044B054A1B600021126052605B60996080
:104E2000704700BF500C0020480C0020000000001C
:104E3000FFF7EEBF000000000000000000000000CF
:104E4000024B00221B605B609A607047500C002090
:104E5000FFF7F6BF000000000000000000000000A7
:104E6000044A054B126000215260916099601B60FA
:104E70005B607047500C0020240C002000000000F4
:104E8000F8B5104B104F01261E600725002425FAA7
:104E900004F3DB0711D557F8243083B106FA04F286
:104EA000204625EA020501349847002DEFD1074935
:104EB0000748BDE8F84004F063BC0134E7E7054863
:104EC000FBF7AEFCF81D0020E4AD0008E8A90008DF
:104ED0004CAE0008D4AD0008000000000000000047
:104EE000432004F09DBD00BF000000000000000052
:104EF000422004F095BD00BF00000000000000004B
:104F0000412004F08DBD00BF000000000000000043
:104F100003F046BD0000000000000000000000009B
:104F200038B5154B154C9B69154A996815480131E0
:104F30000125256005F01CF8134A02232360106048
:104F40000424FCF715FA90F820200D2A02D00F480F
:104F5000FBF766FC456A2946FCF7DAF9E8B204F08B
:104F60005FFD013CEDD103F01BFD09490948BDE897
:104F7000384004F005BC00BF681E0020F81D00206A
:104F8000A14F000810170020981D0020A8AD0008B0
:104F9000E8A90008E4AB00080000000000000000E1
:104FA00010B541210446FCF71BFA20464221FCF7CC
:104FB00017FA20464321FCF713FA20464421BDE8A6
:104FC0001040FCF70DBA00BF000000000000000018
:104FD000F8B51C4B1C4E9B691C4C9F681C4A1D4B12
:104FE0001D4D791C4FF0020E3046C4F800E004F06D
:104FF000BFFF4FF0030E2860B91C06F5A470174BD5
:10500000174AC4F800E004F0B3FFF91C154A6860C1
:10501000042706F52470144B276004F0A9FF05232C
:10502000A860236005F0A4F80623236005F0A0F82B
:105030000723236003F0B4FC0C490D48BDE8F84099
:1050400004F09EBB681E002010170020F81D0020F1
:10505000F1580008DCA90008981D0020E4A9000808
:10506000B12A000881500008E0A90008E8A900085A
:105070004CAE00080000000000000000000000002E
:1050800038B5064C05462046FCF7A2FA287804F00D
:10509000C7FC2046BDE83840FCF73ABA240C002093
:1050A0002DE9F843404D414EAA69414B946841486F
:1050B000414A424F04F101084FF0020E4146C6F842
:1050C00000E004F055FF04F10209494638603C4B0A
:1050D0003C4A3D4804F04CFF032378603B48336072
:1050E000FCF776FAAB693A499868001BB0FA80F091
:1050F000400904F06DFB08B1BDE8F88304234FF4C8
:105100007A703360FCF78CFBAB6931499868A0EB8F
:105110000800B0FA80F0400904F05AFB0028EBD1F7
:1051200005232C483360FCF753FAAB69284998688B
:10513000A0EB0800B0FA80F0400904F049FB002819
:10514000DAD106234FF47A703360FCF769FBAB6960
:105150001F499868A0EB0900B0FA80F0400904F0FC
:1051600037FB0028C8D107231A483360FCF7D0F971
:10517000AB6917499868A0EB0800B0FA80F04009C5
:1051800004F026FB0028B7D1082310483360FCF751
:10519000BFF9AB690E499868001BB0FA80F040096E
:1051A000BDE8F84304F014BB681E0020F81D002081
:1051B000DCA9000810170020D1280008981D002045
:1051C000E0A90008512B000858180020500C0020BE
:1051D000F0AD0008240C00200000000000000000DA
:1051E000F8B5244F244EBB6924489C68244D022303
:1051F0003360FCF7EDF94FF0030E611C214B224A9E
:105200002248C6F800E004F0B3FEA11C2860204B41
:105210001D4A204804F0ACFEE11C68601E4B1A4A8F
:105220001E4804F0A5FE211DA8601D4B164A1D480E
:1052300004F09EFE611D144AE8601B4B1B4804F0FD
:1052400097FE042328610D483360FCF761F903F0F1
:10525000A7FBBB6916499868001BB0FA80F04009AB
:1052600004F0B6FA00B1F8BD12491348BDE8F840A1
:1052700004F086BA681E0020F81D0020500C0020A3
:10528000981D002000AA00086128000810170020BF
:1052900014B3000858180020E4A90008A019002041
:1052A000E0A90008E81A0020DCA90008301C002052
:1052B000F0AD0008E8A90008FCA900080000000003
:1052C0002DE9F043584DDFF878812D600223C8F8AE
:1052D00000308BB0202383F31188544C0AAEFBF7C7
:1052E000BFFF2B6846F8143DA369069301214FF0D8
:1052F000FF3300220993079108922E60FBF788FF85
:105300002368A34205D0A2699B6892689A42C0F0C4
:1053100084804FF0000989F31188202383F31188DA
:105320000AAFFBF79DFF2B6847F8283DA269CDF82F
:105330000C904FF0FF3302210493019202912F60F1
:10534000FBF766FF2368A34204D0A2699B689268BA
:105350009A4262D3002383F31188202383F31188B8
:10536000FBF77EFF28683249401B18BF012004F07C
:105370002FFA002841D1FBF74BFF2368A34204D04A
:10538000A2699B6892689A424AD3002383F31188EA
:10539000032331462448C8F80030FCF789F820235D
:1053A00083F31188FBF75CFF28682149401B18BF75
:1053B000012004F00DFA00BBFBF72AFF2368A3428B
:1053C00004D0A2699B6892689A4229D3002383F390
:1053D0001188042339461448C8F80030FCF768F8EF
:1053E000202383F31188FBF73BFF28681149401BFA
:1053F000B0FA80F0400904F0EBF9FBF709FF2368ED
:10540000A34204D0A2699B6892689A4208D3002301
:1054100083F311880BB0BDE8F0830748FBF700FA6F
:105420000648FBF7FDF900BF340C0020681E002081
:1054300030AE00083CAE000838C500089CAD00083E
:10544000F81D002000000000000000000000000027
:1054500038B5202383F311881A4CFBF701FF002194
:105460001948FBF745FBFBF7DBFAFBF7D1FE236896
:10547000A34204D0A2699B6892689A421FD3002578
:1054800085F311884FF4FA70FCF7CAF9202383F3EF
:105490001188FBF7E5FE29460C48FBF729FBFBF7D3
:1054A000BFFAFBF7B5FE2368A34204D0A2699B684C
:1054B00092689A4203D3002383F3118838BD0448CD
:1054C000FBF7AEF9681E0020340C0020380C0020D9
:1054D00038C50008000000000000000000000000C7
:1054E00010B504464FF4FA70FCF79AF9E4B12023A2
:1054F00083F31188FBF7B4FE20460121FBF7D0FAB5
:10550000FBF78EFAFBF784FE094B1A689A4204D027
:10551000996993688A689A4203D3002383F31188B8
:1055200010BD0448FBF77CF90348FBF779F900BF8D
:10553000681E002038C50008B4AD00080000000057
:10554000F8B5304E304FB269304B95683048314A2B
:10555000314C4FF0010E691CC7F800E004F008FD63
:10556000A91C20602D4B2B4A2D4804F001FDE91C9D
:1055700060602C4B274A2C4804F0FAFC291DA060DF
:105580002A4B244A2A4804F0F3FC691DE060294BA9
:10559000204A294804F0ECFC02233B6020612023D0
:1055A00083F31188254CFBF75BFEFBF789F9236831
:1055B000A34218BF6FF0010509D01A68226018468F
:1055C0005460FBF745FA23684562A342F5D1FBF727
:1055D00027FAFBF71DFE3368B34204D0B2699B681B
:1055E00092689A420AD3002383F3118803F0D8F912
:1055F00013491448BDE8F84004F0C2B81248FBF75C
:105600000FF900BF681E0020F81D002000AA000846
:1056100010170020B12A0008981D002014B30008BC
:1056200058180020E4A90008A0190020E0A90008EB
:10563000E81A0020DCA90008301C0020480C0020DB
:10564000E8A90008FCA900082CC50008000000001B
:10565000F8B52B4E2B4FB2692B4B95682B482C4A33
:105660002C4C4FF0010E691CC7F800E004F080FCE0
:10567000A91C2060284B264A284804F079FCE91C24
:105680006060274B224A274804F072FC291DA06065
:10569000254B1F4A254804F06BFC691DE060244B34
:1056A0001B4A244804F064FC02233B602061202351
:1056B00083F31188FBF7D4FD04F0A2FB04F0A0FBF8
:1056C00004F09EFB04F09CFB04F09AFBFBF7A8F9A6
:1056D000FBF79EFD3368B34204D0B2699B689268C1
:1056E0009A420AD3002383F3118803F059F912492F
:1056F0001248BDE8F84004F043B81148FBF790F8B1
:10570000681E0020F81D002000AA000810170020C5
:10571000B12A0008981D002014B300085818002072
:10572000E4A90008A0190020E0A90008E81A002058
:10573000DCA90008301C0020E8A90008FCA900082A
:1057400090AD000800000000000000000000000014
:105750002DE9F84F5B4D5C4CAA69022396682360E3
:1057600004F0D6FC594904F033F808B1BDE8F88FCD
:105770000323236004F0CCFC80F00100C0B2544944
:1057800004F026F80028F1D1524F04233846236054
:10579000FBF7BEFEB8685049B0FA80F0400904F04B
:1057A00017F80028E2D138684C49C01BB0FA80F0E5
:1057B000400904F00DF80028D8D1AB694849986831
:1057C000801BB0FA80F005234009236004F000F844
:1057D0000028CBD10623236004F09AFC3B4903F058
:1057E000F7FF0028C2D104F093FC80F00100C0B2A2
:1057F000374903F0EDFF82460028B7D1D5F818905D
:10580000202383F31188FBF72BFDD9F83880B8F1FA
:10581000000F23D0D8F80CB0C9F838B0FBF718F84F
:10582000D8F80030984546D01A68996BC8F800201F
:105830001846C2F80480C8F80830C8F80C10C3F83D
:105840003880FBF705F9D9F83880B8F1000FE1D1BD
:10585000D9F83C30C9F80830FBF7E2F8FBF7D8FC80
:105860002B68AB4204D0AA699B6892689A4226D3FF
:10587000002383F31188B8681749B0FA80F0400913
:1058800003F0A6FF00287FF471AF38681349C71BE7
:105890007842784103F09CFF00287FF467AFAB6942
:1058A0000F499868821B0723504223605041BDE88E
:1058B000F84F03F08DBFC8F808A0D846C5E70948DF
:1058C000FAF7AEFF681E0020F81D002008AE0008A1
:1058D00018AE0008500C002024AE00082CAA0008C6
:1058E000F0AD000820C50008000000000000000026
:1058F000F8B507462648FBF76BFE2648FBF768FE1F
:10590000202383F31188244DFBF7AAFCFAF7A0FFAC
:10591000AB699E6B002E38D03046FBF709F91F4B60
:10592000AC691846636203E09968A268914202D3A9
:105930001B688342F8D15A68626023604FF0FF31E0
:10594000146007205C60FBF7F3FA013002D03046A8
:10595000FBF736F9FBF75CFC2B68AB4204D0AA6975
:105960009B6892689A420DD3002383F3118838789C
:1059700004F056F80748FBF7CBFD0548BDE8F840B2
:10598000FBF7C6BD0648FAF74BFF0648FAF748FF93
:10599000240C0020500C0020681E0020480C002021
:1059A0002CC50008C0AD0008000000000000000089
:1059B000022906D0032906D00129064818BF002075
:1059C000704705487047032A9ABF044800EBC2009D
:1059D0000020704790B4000844B4000818B50008CF
:1059E00010B5202382B083F31188234CFBF7C0FB52
:1059F000D4F88C2413681978042906D0FBF7A0FB8F
:105A0000002383F3118802B010BD217A0229F5D159
:105A100011791A8901238B401342EFD1FAF750FF15
:105A2000636DA26D9342E9D1226D002AE6D0E26E49
:105A3000002AE3D0043AD21AE0D01A60206EE16D59
:105A4000226D03448B42636524BFA36E6365013AF4
:105A5000002301A909482265E366FEF799FD024685
:105A600038B1D4F88C04019B0179006801F098F9F1
:105A7000C4E70348FAF7D4FE880C0020CC0C0020C1
:105A800074AE0008000000000000000000000000EC
:105A900038B5052916D8DFE801F050151650500327
:105AA000202383F31188FBF763FB01213148FBF7C7
:105AB0001FF8314B00241C7583F84C40FBF740FB6A
:105AC00084F3118838BD0546202383F31188FBF742
:105AD0004FFB294C294A28460121FEF709FC0221E7
